:020000040800F2
:100000005076002045010008410C0008430C000810
:10001000450C0008470C0008490C000800000000CF
:100020000000000000000000000000004B0C000871
:100030004D0C0008000000004F0C0008510C000897
:100040005F0100085F0100085F0100085F01000810
:100050005F0100085F010008ED0E0008810F000835
:100060005F0100085F0100085F0100085F010008F0
:100070005F010008550C00085F0100085F010008DF
:100080005F0100085F0100085F0100085F010008D0
:100090005F0100085F0100085F0100085F010008C0
:1000A0005F0100085F0100085F0100085F010008B0
:1000B0006F0C00085F0100085F0100085F01000885
:1000C0005F0100085F0100085F0100085F01000890
:1000D0005F0100085F0100085F0100085F01000880
:1000E0005F0100085F0100085F0100085F01000870
:1000F0005F0100085F0100085F0100085F01000860
:100100005F0100085F0100085F0100085F0100084F
:100110005F0100085F0100085F0100085F0100083F
:100120005F0100085F0100085F0100085F0100082F
:10013000DFF80CD004F0BAFF00480047890500083A
:10014000507600200648804706480047FEE7FEE755
:10015000FEE7FEE7FEE7FEE7FEE7FEE7FEE7FEE777
:10016000092F0008310100082DE9F04104460D4631
:10017000F74E0022326000F0BAFFF64F04EB840025
:1001800007EBC000A7F1100115B185688D6001E093
:1001900045688D60306800EBD072511022F001028A
:1001A000C906801A090EC0B201F059F8002405EB07
:1001B000850007EBC00615E004EBD4704110012266
:1001C00020F0010002EBC101201AC9B2C0B200F058
:1001D00084FF281900EB800007EBC000113000F00D
:1001E000EFFF641CF068A042E6DCBDE8F08170B56A
:1001F0000D461646D64C0020206000F078FF20689F
:1002000000EBD0714A1021F00101D206401A120E03
:10021000C0B2114601F023F8002416E004EBD470BC
:100220004110012220F0010002EBC101201AC9B2E5
:10023000C0B200F052FF6019C749C0EBC00001EB2B
:100240008000001D00F0BCFF641CB442E6DD70BD00
:1002500070472DE9F05FADF5825D044600260DF193
:10026000140A0122BDA1504604F050F9BA48C4EB6B
:10027000C40100EB81095046D9F8141004F073FB57
:10028000DFF8D0B2B34FABF1100B3DE0B14B00EB58
:1002900040021B1FB449504604F029FA08B1FFF789
:1002A000D7FFD7F80C0100F0B6FD00240025DFF8D9
:1002B000B8820AE008EB0400ABB28278417818F803
:1002C000040001F060F9E41C6D1CD7F8E40000EBB9
:1002D0004000A042EEDCDBF804000128FDD1002044
:1002E000CBF80400A0484FF4DE63A04A0C2140384C
:1002F00001F009FCD836D9F814008119504604F0F1
:1003000032FB08B1FFF7A4FFD7F8E40000EBC0010F
:1003100001EB0011B6EB410FB8DD0DF5825DBDE8D4
:10032000F09F944992480860704710B58EB0002441
:100330000A940B940C940D94089409941C2101A820
:1003400004F049FE88488C4940380160446084606C
:100350005921C1600461846101F083FB08B1FFF79A
:1003600077FF4FF480500A907F480AA9403801F087
:10037000ACFE08B1FFF76CFF7B48403801F0A7FBEB
:1003800008B1FFF765FF08940994774808A9403839
:1003900001F051FF08B1FFF75BFF6020019002946C
:1003A0000394059470480C2201A9403801F0EBFD3C
:1003B00008B1FFF74DFF6C48403800F0E7FC0EB085
:1003C00010BD10B586B000240294039404940594E3
:1003D0000094019464484FF080418038016041F6F8
:1003E0001F41416084606421C1600461846101F047
:1003F00038FB08B1FFF72CFF4FF4805002905A48A9
:1004000002A9803801F061FE08B1FFF721FF0094D6
:10041000019455486946803801F00DFF002801D04D
:10042000FFF716FF06B010BD10B54F485349D83836
:1004300001604FF48271416000218160C1600161FF
:1004400041614FF4007282611022C2610162416217
:1004500081620A21C16201F082FA002802D0BDE85F
:100460001040F5E610BD08B54548416941F001016D
:100470004161406900F001000090002211460D200A
:1004800002F0F1FCBDE808400D2002F00ABD30B5D5
:1004900085B000240194029403940494384881693F
:1004A00041F020018161816901F0200100918169A1
:1004B00041F004018161816901F0040100918169C9
:1004C00041F008018161806900F0080000902D4D25
:1004D00000223821284602F0C2FA38210191012178
:1004E00002910394049101A9284602F0BDF905B0D8
:1004F00030BD30B58FB0282105A804F06CFD142163
:10050000684604F068FD0121059108040690002466
:100510000794099102250C950D904FF4E0100E9070
:1005200005A801F0FEFE08B1FFF792FE0F20009033
:10053000019502944FF48060039004940221684670
:1005400002F0BCF8002801D0FFF782FE0FB030BDEA
:100550008802002010000020500100207465737490
:10056000342E626D700000009C0300204C26002099
:100570000400FA050CED00E00004004000380040E3
:100580000010024000080140ADF5845D01F09AFEC4
:10059000FFF7AFFFFFF77BFFFFF765FFFFF744FFB4
:1005A000FFF70FFFFFF7C1FE00F03AFB00F051FC30
:1005B00000F05EFC00F0DCFFF84C00221021204629
:1005C00002F04DFA00222021204602F048FA4FF4B2
:1005D0007A7000F020FC01221021204602F03FFA40
:1005E00001222021204602F03AFA00F08AFDEC4870
:1005F00001F053FAEB48407802F0B3FC00240022EB
:10060000E949EA4803F051FFDFF89493DFF8A0834B
:1006100009F1800910B1FFF71BFE10E00DF58051C4
:10062000C1F878904FF40070C8670EAFE1A138466A
:1006300004F0E2FAE04E307018B1FFF709FE00272F
:1006400098E00DF5835A29E00DF5805090F8690087
:1006500058B3092C29DC0DF58050806F04F0F0FCB4
:1006600018B10DF58050856F02E041F269056D44C7
:10067000D2A1284604F0C6FC80B1D2A1284604F0DD
:10068000EFFC421B062A00DD0622C4EBC40008EB87
:100690008000001D294604F0C7FC641C5146384602
:1006A00004F005FB30700028CED0384604F0ECFA98
:1006B000C5E70A2000F0AFFBC7EBC70008EB8005D9
:1006C000281D04F0BDFC801D04F02AFE8246291D71
:1006D000504604F0BCFCB9A1504604F087FCB14878
:1006E00001225146303003F011FF10B1FFF7B0FD89
:1006F0003CE0B14BAA49AB480C334022803130304A
:1007000003F0F5FF99F81200E86099F816102961D6
:1007100099F80A1001F58061696199F80210A961E0
:10072000A5491031D1F8E410884218D00020E860C3
:1007300028616861A8613E460DE0701CC0EBC000F6
:1007400008EB8001C6EBC60008EB8000091D001D08
:1007500004F07DFC761CA642EFDD641E7F1E9148EE
:10076000303004F0EAF808B1FFF772FD504604F0AB
:10077000AFFD7F1CA7429CDB0027BB46B846B946AD
:10078000914D286800EBD0714A1021F00101D2068A
:10079000401A120EC0B2114600F061FD0121002086
:1007A00000F09BFC8448213000F00AFD82481030A4
:1007B000C668761E844D2868834525D0002801DB55
:1007C000B04205DD002801DA304600E00020286054
:1007D00001224946404600F023FD286800EBD07214
:1007E000511022F00102C906801A090EC0B200F0B1
:1007F00036FDD5F800B00BEBDB7020F00101ABEB60
:10080000010840104FEAC009DFF8C0A1DAF8000083
:100810008742CFD0286800EBD0714A10D60021F073
:100820000101401A0122314600F0FAFC50460168ED
:10083000B9426FDDDFF880A12F68DAF8080038448C
:10084000032859D000EB80000AF1100606EBC00225
:10085000127C002A7ED000F04AFC0021084600F0FD
:10086000FEFC0121002000F038FC59A000F0A8FC9B
:10087000DAF808002968084400EB800006EBC000A5
:10088000006A00F0B6FC0821002000F026FC52A00F
:1008900000F096FCDAF808002968084400EB8000B4
:1008A00006EBC000406A00F0A4FC0021012000F02B
:1008B00014FC4BA000F084FCDAF808002968084416
:1008C00000EB800006EBC000C06900F092FC3F49DD
:1008D000D1F800B00020DAF808302A681A4402EB98
:1008E000820206EBC202D2692A60DA1902EB8202A6
:1008F00006EBC202566A1DE0FFF713FDEDE0296822
:10090000884217D0002901DBB14206DD002902DA56
:10091000304601E0D4E000202860042206210120B6
:1009200000F07EFC0621012000F0D7FB286800F0D3
:1009300060FC2868254909688B45E0D0DAF8080092
:100940002968384400EB80021B48103000EBC202DB
:10095000D16100E007E0002129608B46006D012194
:10096000FFF702FCB9E056F83000042803D001215B
:10097000FFF7FAFBB1E0144800270760BB460D46BD
:100980000026032C02DD4FF0030A00E0A246524687
:1009900031462046FFF72BFC84E0000000080140B0
:1009A0001C0300209C150020810200209C050020D3
:1009B000500100202F000000000000202E626D700A
:1009C000000000002E000000880200208C020020A1
:1009D0006D696E3A000000006D61783A0000000019
:1009E00056616C75653A000046490868834559D0E0
:1009F0008B46002801DB504536DD3118A1420EDB65
:100A0000CBF800700026032C02DD4FF0030A00E053
:100A1000A246524631462046FFF7E9FB24E0002873
:100A200010DA7EB1CBF80070361FA4EB060ABAF1DB
:100A3000030F01DD4FF0030A524631462046FFF70F
:100A4000D6FB11E0CBF80070361DA4EB060ABAF114
:100A5000030F02DD4FF0030A01E0AAF1010A52463A
:100A600031462046FFF7C3FB01224946404600F0CD
:100A7000D7FBDBF8000000EBD0714A1021F0010138
:100A8000D206401A120EC0B2114600F0E8FBDBF8A5
:100A900000B00BEBDB7020F00101ABEB0108401064
:100AA0004FEAC0091848006885429DD01648006882
:100AB000854212DA134800683044FFF7CAFB0CE0A5
:100AC000124829688068084400EB80010F48103004
:100AD00050F831000021FFF747FB0C48806800EB1D
:100AE00080010A48103000EBC100C668761E064837
:100AF00007685FE60649884203D106490888401C1A
:100B000008807047880200208C020020000000202E
:100B10001C030020A202002010B500F0EBFB00F047
:100B20008FFC3C4918B9087820F00100087008785B
:100B300010BD002801D0012070473648007870476A
:100B400070B50D4611461C46002806D12CB131481F
:100B50000078C00703D0032070BD042070BD2E486C
:100B60000078400700D44902012C03D1284600F048
:100B70000BFC002400F0C5FB0CB1012070BD00206F
:100B800070BD70B50D4611461C46002806D12CB12B
:100B900020480078C20703D0032070BD042070BD38
:100BA000400701D5022070BD1B480078400700D4E3
:100BB0004902012C03D1284600F00FFC002400F06C
:100BC000A0FB0CB1012070BD002070BD10B5002845
:100BD00001D0042010BD0F480078C00701D00320C9
:100BE00010BD012431B102290FD0042400F089FB8B
:100BF000204610BD00220821084801F030FF00F017
:100C000069FBFF28F2D10024F0E74FF40070108058
:100C10000024EBE768020020A00200200008014049
:100C200010B50549054804F09BF90349491E0870B1
:100C300010BD002070470000810200206C020020DF
:100C40007047FEE7FEE7FEE7FEE770477047704734
:100C500001F048BB10B50749012008600C21064887
:100C600000F0C3FFBDE81040044801F09DBF0448F8
:100C700001F005B8040000205C030020F8250020E6
:100C80001C03002008B55048816941F001018161D1
:100C9000816901F001010091C16941F08051C16198
:100CA000C06900F08050009008BD30B585B00024C8
:100CB000019402940394049400684449884225D125
:100CC0004148C16941F48041C161C16901F4804179
:100CD0000091816941F008018161806900F008009C
:100CE00000904FF4204001900220029003200490D5
:100CF000374D01A9284601F0B7FD4FF4804101911D
:100D00000294039401A9284601F0AEFD05B030BD60
:100D100038B504462C492068B0F1804F24D02D4AC4
:100D2000904220D1C86940F00200C861C86900F053
:100D300002000090294D284828601020686000209B
:100D4000A8608021E9604900296189006961A86182
:100D5000E861284601F09EFE08B1FFF779FA2563A5
:100D60006C6225626C6238BDC86940F00100C861E0
:100D7000C86900F001000090002211461C2002F01A
:100D800072F8BDE838401C2002F08BB800B585B081
:100D90000021019102910391049100680D4988425C
:100DA00010D10948816941F008018161806900F032
:100DB00008000090022001900290049001A90448CC
:100DC00001F052FD05B000BD0010024000380040A7
:100DD000000C01400004004030000240F8250020D3
:100DE000214AC02111602049082228390A601E4A80
:100DF000401E121D10601C4A0020121F10600920A6
:100E00000860194818380168C907FCD0016821F04A
:100E1000010101607047144A44F6585111601249AB
:100E2000082228390A6000EB80000F4A4000121D9A
:100E300010600D4A0020121F1060092008600A4847
:100E400018380168C907FCD0016821F00101016070
:100E500070470648C16941F00401C1610249082098
:100E60002839086070470000280800400010024040
:100E700038B56C4C002121606B48826942F0040255
:100E80008261826902F004020092826942F00102EA
:100E90008261806900F001000090644807220260CE
:100EA00041600221C1608160614D0146284601F028
:100EB000DBFC0121284601F0CBFD20615D48016883
:100EC00041F0030101605B480830016841F0010115
:100ED0000160001D016841F003010160062000F07F
:100EE0008AF8BDE83840072000F085B870B50620C4
:100EF00000F08CF8072000F089F84E4814300168A3
:100F000041F0010101604A4D0121284601F0A0FD98
:100F1000444CA0600421284601F09AFDE060A168DD
:100F200029B920B1226912B12268521C226029B16C
:100F300020B9226912B92268521C226051EA0002CB
:100F400004D1226912B12268521E226029B120B157
:100F5000206910B92068401E20600520FFF75BFF64
:100F60000020A060E0600121284601F071FD2061B1
:100F7000062000F040F8BDE87040072000F03BB8C4
:100F800070B5062000F042F8072000F03FF829482D
:100F90001430016841F002010160224C244D0BE045
:100FA0000A20FFF738FF6069401C6061192803DBE5
:100FB0006068401E606005E00221284601F048FD9F
:100FC0000028EDD06069192802DA6068401C606072
:100FD000002060610221284601F03AFD0028F9D086
:100FE0000520FFF718FF062000F005F8BDE8704067
:100FF0000720AFF3008000F01F020121914040095B
:10100000800000F1E020C0F80011704700F01F02DE
:10101000012191404009800000F1E020C0F88011DA
:101020007047000088020020001002403C2600208B
:10103000000801400004014010B5984CE06840F4FD
:101040008060E0600220FFF7CBFEE06820F4806063
:10105000E06010BD70B505460E46904CE06820F487
:10106000FE50E060E06805F0F00140EA8100E060D9
:10107000012E25D0E06820F40060E0600420FFF736
:10108000AFFEFFF7D9FF0520FFF7AAFEE06820F4C6
:10109000FE50E060E06805F00F0140EA8110E0607A
:1010A000012E15D0E06820F40060E060FFF7C4FF77
:1010B0000520FFF7B0FEE06820F4FE50E06070BD50
:1010C000E06840F40060E0600420FFF789FED8E7A4
:1010D000E06840F40060E060E8E7002805D04020C8
:1010E000084340F080000021B4E70020F8E710B585
:1010F00000210120FFF7AEFFBDE810400320FFF7FD
:101100008ABE10B586B06648816941F010018161E0
:10111000806900F0100001904FF4FE500290012011
:101120000390032005905D4C02A9204601F09CFB32
:101130001420FFF770FEE06820F4FE50E060E068E5
:1011400020F40060E060E06820F48060E060E06827
:1011500040F08000E060FFF76FFF0520FFF75BFEC7
:10116000E06820F4FE50E060E06840F08000E0605D
:10117000FFF762FF0A20FFF733FEE06820F4FE501D
:10118000E060E06840F40070E060FFF755FF052084
:10119000FFF741FEE06820F4FE50E06000210820E7
:1011A000FFF758FF00210620FFF754FF002114200D
:1011B000FFF750FF00210C20FFF74CFF06B010BDD9
:1011C00010B50446062000F05DF8072000F05AF83C
:1011D00003E00121FFF73EFF641C14B120780028D2
:1011E000F7D1062000F043F8BDE81040072000F0DA
:1011F0003EB83EB50446062000F044F8072000F053
:1012000041F8224627A1684603F08EFF6846FFF7A3
:10121000D7FF062000F02BF8072000F028F83EBD8D
:1012200070B504460E461546062000F02BF8072040
:1012300000F028F8F1B2E0B2FFF74FFF002404E01D
:1012400001212020FFF706FF641CAC42F8DB0620DA
:1012500000F00DF8BDE87040072000F008B810B5A8
:10126000FFF73BFF0121BDE810407E20F2E600F0D1
:101270001F02012191404009800000F1E020C0F8E8
:101280000011704700F01F020121914040098000C9
:1012900000F1E020C0F8801170470000001001400C
:1012A0000010024025640000704701B582B00020A4
:1012B00001904FF480500090012301AA02A9A9488F
:1012C00000F060FA08B1FFF7EFFF9DF804000EBDD3
:1012D000FF20EAE770B500244FF6FF75FFF7F8FF2F
:1012E000641CA4B2FF2801D0AC42F7D3AC4200D3B7
:1012F000012070BD9C480021418041880229FCD317
:101300007047FF20D1E7D0E770B504460D462006B0
:1013100007D504F07F0400217720FFF7F5FF0128AF
:1013200031D8924E01220821304601F098FBFFF798
:10133000CFFF00220821304601F091FBFFF7C8FFE4
:101340002046FFF7E0FF280EFFF7DDFFC5F307405B
:10135000FFF7D9FFC5F30720FFF7D5FFE8B2FFF786
:10136000D2FF0120402C00D19520482C00D18720AD
:10137000FFF7C9FF0A24FFF7ABFF010603D5641E80
:1013800014F0FF04F7D170BD70B505465120FFF78A
:10139000BBFF08B1052070BDFFF7B3FF00244FF677
:1013A000FF76FFF795FF641CA4B2FE2801D0B4427B
:1013B000F7D3B44201D3052070BD00244FF400766A
:1013C000FFF786FF2855641CA4B2B442F8D3FFF798
:1013D00098FFFFF796FF002070BD70B505465820B6
:1013E000FFF792FF08B1062070BDFFF78AFFFE20CD
:1013F000FFF789FF00244FF40076285DFFF783FF95
:10140000641CA4B2B442F8D3FFF77BFFFFF779FF67
:10141000FFF75EFF0521814301D0062070BD002447
:101420004FF6FF75FFF754FF641CA4B2FF2801D0EC
:10143000AC42F7D3AC4201D3062070BD002070BD92
:101440002DE9F843484E00273770DFF81881D8F8A7
:101450001C503020C8F81C00404600F080FADFF82D
:101460000C9101220821484601F0F9FA0024FFF707
:1014700048FF641CE4B20A2CF9D3C8F81C50394860
:1014800000F06DFA00220821484601F0E8FA002138
:101490004020FFF739FF012802D00120BDE8F88382
:1014A000FFF72FFF4FF4D5714820FFF72DFF0128DC
:1014B00009D00021E920FFF727FF012838D80220B2
:1014C0003070E92537E000246D46FFF701FF28550D
:1014D000641CE4B2042CF8D39DF8020001283ED12C
:1014E0009DF80300AA283AD142F6E064470701E0DC
:1014F000641E24B22CB13946E920FFF705FF00280D
:10150000F6D164B300217A20FFF7FEFE38BB002439
:10151000FFF7DEFE2855641CE4B2042CF8D39DF8D6
:101520000000400601D50C2000E00420307016E0D9
:1015300001203070412546F2A81401E0641E24B257
:101540002CB100212846FFF7DFFE0028F6D12CB190
:101550004FF400715020FFF7D7FE00B13770002024
:101560009CE70000C4020020A00200200008014007
:101570003020344A1D214FF4DE6322F81010401C45
:101580009842FADB70472DE9F841002400943A268E
:101590004FF0010803EB43032A4C1D274CE0BDF834
:1015A0000050C5F1070C08FA0CF5054208D0BDF84B
:1015B000005005EBC30C0CF1380C24F81C6007E05C
:1015C000BDF8005005EBC30C0CF1380C24F81C706E
:1015D000BDF80050C5F1070C08FA0CF50D4208D013
:1015E000BDF8005005EBC30C0CF1300C24F81C6066
:1015F00007E0BDF8005005EBC30C0CF1300C24F8EB
:101600001C70BDF80050C5F1070C08FA0CF5154226
:1016100007D0BDF8005005EBC305403524F8156030
:1016200006E0BDF8005005EBC305403524F8157001
:10163000BDF800506D1C0095BDF80050082DAED3CC
:10164000BDE8F8814C260020704770B50446002C98
:1016500005D00025A56294F8510010B106E00120E4
:1016600070BD84F850502046FFF71FFB022084F81D
:1016700051002068016821F040010160D4E90101B6
:101680000843D4E903121143084361690843218BDD
:1016900001F400710843E1690843216A0843A16A23
:1016A000084321680860A069042101EA1040616ACA
:1016B0000843216848602068C16921F40061C16164
:1016C0006565012084F85100002070BD2DE9F041CE
:1016D00004460E4617461D46DDF8188034E0681CA7
:1016E00032D02DB100F004FEA0EB0800A8422BD3AD
:1016F0002068416821F0E00141606068B0F5827FB8
:101700000BD1A068B0F5004F02D0B0F5806F04D1C6
:101710002068016821F040010160A06AB0F5005F17
:101720000AD1206801684DF6FF72114001602068FF
:10173000016841F4005101600120503460700020C4
:1017400020700320BDE8F0812068806836EA000040
:1017500004D00020B842C2D10020F3E70120F9E70D
:1017600038B504460B460092002280212046FFF740
:10177000ADFF28B1606D40F020006065032038BDEA
:10178000002038BD2DE9F84F0446DDF828800D46CD
:1017900016469B4601274FF0000994F85000012897
:1017A0000ED0012084F8500000F0A2FD824694F88B
:1017B0005100616801280DD0B1F5827F07D102E0A8
:1017C0000220BDE8F88FA16809B9042802D04FF0C3
:1017D0000209BDE045B13EB1BBF1000F04D094F861
:1017E0005100012803D005E04FF00109B0E00520C9
:1017F00084F8510000206065A663A4F83EB0A4F808
:101800003CB02563A4F836B0A4F834B0206460641A
:1018100020680168490603D4016841F04001016075
:10182000E068B0F5006F05D06068B8B3E08E0128BD
:101830003CD06AE0606810B1E08E01282FD12168A9
:1018400035F8020BC860E08E401EE08627E067B1E5
:10185000E08E50B120688168890706D535F8021BF3
:10186000C160E08E401EE0860027E08F50B1206806
:101870008168C90706D0C06826F8020BE08F401EB9
:10188000E0870127B8F1FF3F09D000F031FDA0EB60
:101890000A00404503D34FF0030959E006E0E08E0B
:1018A0000028D4D1E08F0028D1D134E0216815F888
:1018B000010B0873E08E401EE08626E067B1E08EE3
:1018C00050B120688168890706D515F8011B01739E
:1018D000E08E401EE0860027E08F50B120688168CE
:1018E000C90706D0C06806F8010BE08F401EE087EC
:1018F0000127B8F1FF3F08D000F0FAFCA0EB0A0086
:10190000404502D34FF0030922E0E08E0028D5D1F4
:10191000E08F0028D2D14346012202212046CDF893
:1019200000A0FFF7D3FE10B14FF0030910E05246BC
:1019300041462046FFF714FF20B14FF00109202057
:10194000606505E0A06818B92068C16880680090EB
:1019500001205034607000202070484631E770B597
:101960000446002C05D00025A56294F8510010B162
:1019700004E0012070BD2046FFF797F9022084F8AB
:1019800051002068016821F040010160D4E90101A3
:101990000843D4E903121143084361690843218BCA
:1019A00001F400710843E1690843216A0843A16A10
:1019B000084321680860A069042101EA1040616AB7
:1019C0000843216848602168E06A08612068C169AD
:1019D00021F40061C1616565012084F85100002097
:1019E00070BD00002DE9F0410268FE4DFE4EFF4F34
:1019F000DFF8FCC3FF4B4FF08048A84209D0984263
:101A000007D0404505D0B04203D0B84201D0604570
:101A100003D122F070044A682243A84209D09842B8
:101A200007D0404505D0B04203D0B84201D0604550
:101A300003D122F44074CA68224322F080024C6928
:101A4000144304608A68C2620A688262A84201D0B4
:101A5000984201D10969016301214161BDE8F0812A
:101A6000704710B50446002C03D094F83D0010B127
:101A700007E0012010BD002084F83C002046FFF75D
:101A800047F9022084F83D00211D2068FFF7AAFFD6
:101A9000012084F83D00002010BD0168CA6842F0B2
:101AA0000102CA600068016841F001010160002084
:101AB0007047704710B501238B40046A9C43046251
:101AC000036A8A401343036210BD7047704710B524
:101AD0000446002C03D094F83D0010B107E001202B
:101AE00010BD002084F83C002046FFF7EFFF0220E5
:101AF00084F83D00211D2068FFF774FF012084F861
:101B00003D00002010BD70B50D460446114694F806
:101B10003D00022804D094F83D00012802D008E0DE
:101B2000022070BD11B90BB1012070BD022084F8F4
:101B30003D00B148B14A35B1042D13D0082D20D055
:101B40000C2D3BD12CE0666AB062606A02632268A9
:101B5000606A343200F0EEFF2068C16841F4007121
:101B6000C1602BE0A66AB062A06A02632268A06A24
:101B7000383200F0DFFF2068C16841F48061C16045
:101B80001CE0E66AB062E06A02632268E06A3C3206
:101B900000F0D0FF2068C16841F40061C1600DE031
:101BA000266BB062206B02632268206B403200F02B
:101BB000C1FF2068C16841F48051C16001222946FB
:101BC0002068FFF777FF87492068884202D089495B
:101BD000884203D1416C41F40041416420680168AE
:101BE00041F001010160002070BD10B504460029DC
:101BF000226806D0042909D008290CD00C2913D159
:101C00000EE0D06820F40070D0600DE0D06820F4C1
:101C10008060D06008E0D06820F40060D06003E00D
:101C2000D06820F48050D06000222068FFF742FF87
:101C30006C4841F2111221689310814202D06D4824
:101C4000814209D1086A104206D1086A184203D1BC
:101C5000486C20F4004048642068016A114206D1B3
:101C6000016A194203D1016821F0010101600120DC
:101C700084F83D00002010BD70477047704770B574
:101C80000446206801694FF00005C943890716D44E
:101C9000C168C943890712D4E91E01610120207778
:101CA00020688069800703D02046FFF7E5FF05E044
:101CB0002046FFF7E3FF2046FFF707FF2577206860
:101CC0000169C943490718D4C168C943490714D4F5
:101CD0006FF004010161022020772068806910F410
:101CE000407F03D02046FFF7C7FF05E02046FFF7FF
:101CF000C5FF2046FFF7E9FE257720680169C94343
:101D0000090717D4C168C943090713D46FF0080144
:101D10000161042020772068C069800703D0204635
:101D2000FFF7AAFF05E02046FFF7A8FF2046FFF7D0
:101D3000CCFE257720680169C943C90618D4C1685B
:101D4000C943C90614D46FF010010161082020773F
:101D50002068C06910F4407F03D02046FFF78CFF55
:101D600005E02046FFF78AFF2046FFF7AEFE257705
:101D700020680169C943C90708D1C168C943C907B7
:101D800004D1891E01612046FEF7B4FE2068016976
:101D9000C943090609D4C168C943090605D46FF0CF
:101DA00080010161204600F06EFA20680169C94394
:101DB000490609D4C168C943490605D46FF04001FA
:101DC00001612046FFF759FF20680169C943890670
:101DD0001AD4C168C943890616D46FF02001016185
:101DE00020460DE0002C01400004004000080040A7
:101DF000000C004000340140F3210008E3210008FA
:101E0000BDE8704000F016BA70BD30B5026A22F429
:101E100080520262046A4268C36923F4E04323F4F7
:101E200040730D6843EA052324F400548D6844EAA6
:101E30000534E94DA84202D0E84DA84204D122F46D
:101E400080424D6942EA85124260C361496801647B
:101E5000046230BDF0B5026A22F480720262026A46
:101E60004368C46924F0700424F003050C682C4313
:101E700022F400728D6842EA0522D74DD74EA8425F
:101E800001D0B04206D122F40062CF6842EA0722B4
:101E900022F48062A84201D0B04209D123F48053D9
:101EA00023F400534D6943EA05138D6943EA051392
:101EB0004360C4614968C1630262F0BDF0B5026A63
:101EC00022F010020262036A4268846924F4E0444A
:101ED00024F440740D6844EA052423F020038D683F
:101EE00043EA0513BC4DBD4EA84201D0B04206D115
:101EF00023F08003CF6843EA071323F04003A8428E
:101F000001D0B04209D122F4806222F400624D690E
:101F100042EA85028D6942EA85024260846149682D
:101F200081630362F0BDF0B5026A22F00102026231
:101F3000026A4368846924F0700424F003050C6885
:101F40002C4322F002058A682A43A34EA34FB042D5
:101F500001D0B84205D122F00805CA682A4322F010
:101F60000402B04201D0B84207D123F4807323F4B5
:101F700000734D691D438B692B434360846149683D
:101F800041630262F0BD70B504460D4694F83C0012
:101F900001280DD0012684F83C60022084F83D0021
:101FA00042B1042A1AD0082A2DD00C2A53D13EE07F
:101FB000022070BD29462068FFF7B5FF20688169BF
:101FC00041F0080181612068816921F0040181618B
:101FD000206881692A69114381613CE029462068B3
:101FE000FFF76CFF2068816941F40061816120681E
:101FF000816921F480618161206881692A6941EAEF
:102000000221816127E029462068FFF723FF20682D
:10201000C16941F00801C1612068C16921F0040172
:10202000C1612068C1692A691143C16113E0294671
:102030002068FFF7EAFE2068C16941F40061C161D0
:102040002068C16921F48061C1612068C1692A6981
:1020500041EA0221C1613C3466700020207070BDED
:1020600010B5846824F47F4442EA03220A432243E1
:10207000826010BD826822F070020A4342F00701BC
:102080008160704710B5036A046A24F00104046299
:10209000846924F0F00444EA021423F00A020A439B
:1020A0008461026210BD10B5036A23F0100303625D
:1020B0008469036A24F4704444EA023223F0A003E2
:1020C00043EA01118261016210BD70B5044694F8C3
:1020D0003C00012817D0012584F83C50022084F8E8
:1020E0003D002068826822F0770222F47F428260FD
:1020F000086850283AD00DDC20285FD005DCA0B35A
:10210000102864D155E0022070BD30285BD04028F3
:102110005DD13FE0602833D070280CD0B0F5805FEF
:1021200003D0B0F5005F52D113E02068816821F040
:10213000070181604BE0CB68D1E901212068FFF7FE
:102140008FFF2068816821F0770141F0770181607D
:102150003DE0CB68D1E901212068FFF781FF2068CD
:10216000816841F48041816031E01DE0CA684968BE
:102170002068FFF787FF50212068FFF77BFF26E0EC
:10218000CA6849682068FFF78EFF60212068FFF762
:1021900071FF1CE0CA6849682068FFF773FF40219F
:1021A0002068FFF767FF12E000212068FFF762FF59
:1021B0000DE010212068FFF75DFF08E02021206876
:1021C000FFF758FF03E030212068FFF753FF3C344E
:1021D00065700020207070BD002C0140003401406B
:1021E000704710B5406A012180F83D10FFF7F8FFF5
:1021F00010BD10B5446A012184F83D10626A824224
:1022000001D1217710E0A16A814202D1022020771A
:102210000AE0E16A814202D10420207704E0216BC8
:10222000814201D1082020772046FFF74EFC002094
:10223000207710BD704730B590F83C20012A20D09F
:10224000012380F83C30022280F83D200268546867
:1022500024F070045460026854680D682C43546084
:102260000268946824F08004946002689468496865
:102270000C43946080F83D30002180F83C10002031
:1022800030BD022030BD7047704770B504461A4D0E
:102290004FF47A712878B1FBF0F018490968B1FB66
:1022A000F0F000F009FE08B1012070BD102C07D23B
:1022B00000222146501E00F0D6FD6C60002070BD4B
:1022C000012070BD10B50E48016841F01001016099
:1022D000032000F0BBFD0020FFF7D7FFFEF7D2FC84
:1022E000002010BD04488168027811448160704765
:1022F0000148806870470000A4020020B00200205E
:102300000020024008B5FB494FF4FA520968B1FBBE
:10231000F2F14143009100BF0098411E0091FAD2B2
:1023200008BD2DE9F84F0446F34D2078C0075BD077
:102330006868C0F38100012807D06868C0F3810095
:1023400002280AD16868C00307D5286880034BD5E6
:10235000606878BB0120BDE8F88F6068B0F5803F09
:1023600011D0A8B1B0F5A02F1BD0286820F4803080
:102370002860286820F480202860606830B3FFF768
:10238000B7FF06461EE0286840F480302860F4E776
:10239000286820F480302860286820F48020286095
:1023A000EBE7286840F480202860286840F48030FB
:1023B0002860E2E718E0FFF79BFF801B642801D943
:1023C0000320C8E728688003F5D50DE0FFF790FFEC
:1023D000064606E0FFF78CFF801B642801D9032026
:1023E000B9E728688003F5D42078DFF810838007E8
:1023F0004FF0010A4FF0000945D5686810F00C0F46
:1024000007D06868C0F38100022812D16868C00351
:102410000FD42868800704D52069012801D0012045
:1024200099E72868616920F0F80040EAC100286057
:1024300029E02069B8B1C8F800A0FFF759FF0646A7
:1024400006E0FFF755FF801B022801D9032082E731
:1024500028688007F5D52868616920F0F80040EA0F
:10246000C10028600FE0C8F80090FFF741FF064662
:1024700006E0FFF73DFF801B022801D903206AE731
:1024800028688007F5D42078000726D59C48A169E4
:1024900099B1C0F800A0FFF72BFF064606E0FFF752
:1024A00027FF801B022801D9032054E7686A8007B0
:1024B000F5D50120FFF726FF0FE0C0F80090FFF7E9
:1024C00017FF064606E0FFF713FF801B022801D91D
:1024D000032040E7686A8007F5D42078400773D569
:1024E0000026E869C00008D4E86940F08050E8613F
:1024F000E86900F0805000900126DFF808B2DBF8B0
:102500000000C00514D4DBF8000040F48070CBF864
:102510000000FFF7EDFE074606E0FFF7E9FEC01BEF
:10252000642801D9032016E7DBF80000C005F4D5C4
:10253000E068012812D0B0B105281DD0286A20F02B
:1025400001002862286A20F004002862E06841F255
:10255000883B28B3FFF7CCFE07461DE0286A40F011
:1025600001002862F2E7286A20F001002862286A48
:1025700020F004002862E9E7286A40F0040028629D
:10258000286A40F001002862E0E7FFF7B1FEC01BB7
:10259000584501D90320DEE6286A8007F5D50DE00D
:1025A000FFF7A6FE074606E0FFF7A2FEC01B584550
:1025B00001D90320CFE6286A8007F5D4012E03D184
:1025C000E86920F08050E861E069A0B36968C1F370
:1025D0008101022947D0022805D0C8F86090FFF792
:1025E00087FE04463AE0C8F86090FFF781FE064691
:1025F00006E0FFF77DFE801B022801D90320AAE632
:1026000028688001F5D4206AB0F5803F05D168685C
:10261000A16820F4003008436860D4E90801084349
:10262000696821F4741108436860C8F860A0FFF776
:102630005FFE044607E014E0FFF75AFE001B022885
:1026400001D9032087E628688001F5D509E0FFF766
:102650004FFE001B022801D903207CE62868800178
:10266000F5D4002077E6012075E685B026A090E835
:102670000E00C068CDE902230191049026A00068F5
:1026800000901D4B5968254801F00C02042A10D017
:10269000082A0ED101A8C1F38342805CC9030AD580
:1026A0005968C1F340411DF801101C4A5043B0FB6A
:1026B000F1F005B070471A494843FAE72DE9F047B1
:1026C00004460E46DFF85C80D8F8000000F00700F2
:1026D000B04229D2D8F8000020F007003043C8F8F3
:1026E0000000D8F8000000F00700B0421CD0012024
:1026F000BDE8F087B0020020001002400000424216
:1027000080044242007000400203040506070809E5
:102710000A0B0C0D0E0F10100102000000127A00BF
:1027200000093D000020024020684C4F810712D56F
:10273000400703D5786840F4E060786020780007AF
:1027400003D5786840F4605078607868A16820F01C
:10275000F000084378602078C00748D060680128FE
:1027600006D0022809D0396889070BD40120BFE7B9
:102770003968890306D40120BAE73968890101D490
:102780000120B5E7796821F0030101437960FFF783
:10279000AFFD0546606841F28839012809D002285A
:1027A00014D020E0FFF7A4FD401B484501D90320C9
:1027B0009EE77868C0F381000128F3D117E0FFF7A6
:1027C00097FD401B484501D9032091E77868C0F385
:1027D00081000228F3D10AE0FFF78AFD401B48453B
:1027E00001D9032084E7786810F00C0FF4D1D8F8F1
:1027F000000000F00700B0420ED9D8F8000020F029
:1028000007003043C8F80000D8F8000000F00700C7
:10281000B04201D001206BE72078400705D57868E9
:10282000E16820F4E060084378602078000706D56E
:102830007868216920F4605040EAC1007860FFF7B1
:1028400014FF7968064AC1F30311515CC840054979
:1028500008600020FFF719FD002049E70010024042
:102860008C530008B00200202DE9F84F002300240B
:10287000DFF8F8914FF00F0809F1040A0AF1040B90
:102880000BF1040E0127A7400A683A40BA4275D1FD
:10289000DFF8DCC14D68A5EB0C0665452BD00DDCDF
:1028A000032D34D005DC35B3012D19D0022D2FD1E5
:1028B0001BE0112D16D0122D2AD119E0B6F5881F74
:1028C00019D006DCB6F5803F15D0B6F5801F1FD1B4
:1028D00011E0B6F5001F0ED0B6F5041F18D10AE0BE
:1028E000CB6815E0CB681B1D12E0CB6808330FE006
:1028F000CB680C330CE08B6823B1012B04D0082388
:10290000476105E0042303E00823076100E000239A
:10291000FF2A01D8054601E000F1040502D84FEA7C
:10292000840603E0A4F108064FEA86062F6808FA39
:1029300006FC27EA0C0703FA06F647EA06072F60AB
:102940004D68ED007ED54B4DAE6946F00106AE6197
:10295000AD6905F001050095474D24F00306771990
:10296000BE68A5072D0F08FA05FC26EA0C06DFF85D
:102970000CC1604503D14FF0000C25E062E0DFF8A8
:1029800000C1604502D14FF0010C1DE0DFF8F4C03A
:10299000604502D14FF0020C16E0DFF8ECC0604554
:1029A00002D14FF0030C0FE0DFF8E0C0604502D128
:1029B0004FF0040C08E0DFF8D8C0604502D14FF0BA
:1029C000050C01E04FF0060C0CFA05FC4CEA060C75
:1029D000C7F808C04D68ED0305D5D9F80050154378
:1029E000C9F8005004E0D9F800509543C9F80050E8
:1029F0004D68AD0305D5DAF800501543CAF800500C
:102A000004E0DAF800509543CAF800504D68ED0232
:102A100005D5DBF800501543CBF8005004E0DBF897
:102A200000509543CBF800504D68AD0205D5DEF857
:102A300000501543CEF8005004E0DEF800509543F6
:102A4000CEF80050641C102CFFF41CAFBDE8F88FCA
:102A50008068084201D00120704700207047002A9A
:102A600001D0016170470904016170470004014011
:102A70000000111000100240000001400008014059
:102A8000000C0140001001400014014000180140FA
:102A9000001C014030B500280DD0E24B0168142223
:102AA00099420AD2E04B0B44B3FBF2F2920002646B
:102AB000DE4AC2630BE0012030BDDA4B5B420B44BF
:102AC000B3FBF2F292000264D64A083AC2630222D1
:102AD000001D42770A6843F6F0739A43D0E9003448
:102AE0002343D0E902452C4323430469234344692B
:102AF00023438469234313430B6000214163012274
:102B000042770177002030BD30B590F84050012465
:102B1000AC40C56B6C60046863604368102B04D0E4
:102B2000036899600068C26030BD03689A600068FD
:102B3000C16030BD70B50446002594F8200001281E
:102B40000CD0012084F8200094F821600020012E90
:102B500006D084F820000225284670BD022070BDF2
:102B6000022684F82160A0632068066826F001062A
:102B700006602046FFF7C8FFE06A28B120680168B8
:102B800041F00E01016009E02068016821F00401B4
:102B900001602068016841F00A0101602068016855
:102BA00041F001010160D7E72DE9F05FC16B0A68D0
:102BB00001680B68046C4FF0040E0EFA04FE9C4D85
:102BC0009C4E9D4FDFF874C2DFF87482DFF8749278
:102BD000DFF850A2DFF870B21EEA020F7AD05FEA87
:102BE000437E77D50A68920603D40A6822F004026D
:102BF0000A60DFF850E24FF4806201680EF1140EB3
:102C00001301140271452DD9A94201D1042225E0F6
:102C1000B14201D1402221E0B9421FD0614501D12A
:102C20001A461BE0414501D1224617E0494502D131
:102C30004FF4800212E0514501D104220EE05945C3
:102C400001D140220AE0804D1435A94206D07E4AC7
:102C50002832914201D11A4600E022467149091FEB
:102C60000A6031E0A94201D104222BE0B14201D136
:102C7000402227E0B94225D0614501D11A4621E022
:102C8000414501D122461DE0494502D14FF4800261
:102C900018E0714502D14FF0806213E0514501D137
:102CA00004220FE0594501D140220BE0664D143556
:102CB000A94207D0644A2832914202D11A4601E063
:102CC00008E0224659494A60C16A00296FD0BDE830
:102CD000F05F08474FF0020E0EFA04FE1EEA020FE4
:102CE00074D05FEA837E7ED50A68920606D40A68AD
:102CF00022F00A020A60012180F82110DFF844E185
:102D00004FF4007201680EF1140E130114027145A4
:102D10002DD9A94201D1022225E0B14201D12022C0
:102D200021E0B9421FD0614501D11A461BE041455F
:102D300001D1224617E0494502D14FF4001212E0BA
:102D4000514501D102220EE0594501D120220AE06D
:102D50003D4D1435A94206D03B4A2832914201D15B
:102D60001A4600E022462F49091F0A6032E0A942B4
:102D700001D102222CE0B14201D1202228E0B94247
:102D800026D0614501D11A4622E0414501D12246B3
:102D90001EE0494502D14FF4001219E0714502D1FD
:102DA0004FF0007214E0514502D1022210E037E0EA
:102DB000594501D120220BE0234D1435A94207D0FB
:102DC000214A2832914202D11A4601E00BE0224604
:102DD00016494A60002180F82010816A00291FD01E
:102DE000BDE8F05F08470825A540154218D01A072E
:102DF00016D50A6822F00E020A6090F84020C36BD4
:102E0000012101FA02F25A60816380F82110002149
:102E100080F82010016B002902D0BDE8F05F084760
:102E2000BDE8F09F08040240F8FFFDBF000002402B
:102E3000080002401C0002403000024044000240F2
:102E4000580002406C0002401C04024000F00701E0
:102E50002B4A10684FF6FF03184040EA0120294929
:102E6000084310607047F0B40D46254B1B68C3F350
:102E70000223C3F10704042C00D90424191D0729D7
:102E800001D2002300E0DB1E012606FA04F1491EF0
:102E9000294099409E40761E16403143F0BC00F018
:102EA0001FB800F01F02012191404009800000F18D
:102EB000E020C0F80011704710B5401EB0F1807FCF
:102EC00001D3012010BD4FF0E02460610F21601795
:102ED00000F006F80020A06107202061002010BD4E
:102EE0000907090E002806DA00F00F0000F1E020C3
:102EF00080F8141D704700F1E02080F8001470473E
:102F00000CED00E00000FA050D48016841F00101F8
:102F1000016041680B4A1140416001680A4A114052
:102F20000160016821F480210160416821F4FE0103
:102F300041604FF41F0181600449C003086070477D
:102F4000001002400000FFF8FFFFF6FE08ED00E071
:102F500020490A1801EB8000127A40684168104647
:102F6000084710B500211B4A135C002B0AD1012130
:102F70001154111802EB8000097A40680268084673
:102F800090470146084610BD30B4124C251804EB9A
:102F900080002D7A406884682846A44630BC60478B
:102FA00030B40C4C251804EB80002D7A4068C468BE
:102FB0002846A44630BC604730B4064B1C1803EBCF
:102FC0008000247A40680369204630BC18470020FE
:102FD000704700004436002003E011F8013B00F880
:102FE000013B521E531CF8D17047C9B201E000F8F2
:102FF000011B521E531CFAD1704710B50023521EFC
:10300000541C05D010F8013B11F8014B1B1BF6D0E6
:10301000184610BD00E0401C02780AB18A42FAD17D
:1030200000787047F0B500221546F94E00F5805043
:1030300014E002EB420356F823406CB10768BC422F
:103040000BD106EB830387685C68BC4205D11B8902
:10305000C488A34204D000E00125521C022AE8D310
:10306000022A01D089B906E01DB9022901D0122037
:10307000F0BD0020F0BD02EB420006EB800040896D
:10308000B0F5807F01D00020F0BD1020F0BD002001
:10309000DF4900E0401C022805D200EB400251F855
:1030A0002220002AF6D1022801D0012070470020FA
:1030B0007047F0B5002200F58050D54C056802EB52
:1030C000420354F82360AE4209D104EB83038768BE
:1030D0005E68BE4203D11B89C688B34202D0521C2F
:1030E000022AECD3022A18D1002200E0521C022A44
:1030F00005D202EB420354F82330002BF6D1022A0A
:1031000014D002EB420344F8235004EB8303856898
:103110005D60C08818810020588149B102EB4200EF
:1031200004EB8000408918B10020F0BD0020F0BD04
:1031300011B14FF4807005E002EB420004EB800017
:103140004089401C02EB420104EB81014881501C84
:10315000F0BD401E022813D2AD4B00EB400203EB42
:1031600082014889B0F5807F00D1002008B1401E5F
:1031700080B2488110B9002043F822000020704737
:103180000220704730B50021A14B002401EB410221
:1031900053F82250854201D143F82240491C0229AC
:1031A000F4D330BD2DE9F0418046002708F5805466
:1031B000207900281DD0E66A607801233246414616
:1031C000FFF7EEFE08B1012713E000202071206A0E
:1031D000A169301A88420CD2E57808E0A06906445B
:1031E0006078012332464146FFF7DAFE6D1E022D5C
:1031F000F4D23846BDE8F0812DE9F04107460D468E
:10320000002407F58056F06AA8420FD03846FFF731
:10321000C9FF044654B9707801232A463946FFF79E
:10322000B3FE10B14FF0FF350124F5622046E1E70F
:1032300070B504462046FFF7B5FF064630004BD177
:1032400004F58055287803283FD1687901283CD1BE
:103250006A8900212046FFF7C8FE552084F8FE0148
:10326000AA2084F8FF015220207060706120A070B5
:103270004121E170722284F8E42184F8E52184F888
:10328000E61184F8E701286984F8E801010A84F866
:10329000E911010C84F8EA11000E84F8EB01E868EA
:1032A00084F8EC01010A84F8ED11010C84F8EE11A8
:1032B000000E84F8EF01EA69521CEA626878012383
:1032C0002146FFF76DFE00206871002268781146E4
:1032D000FFF772FE00B10126304670BD891E00F571
:1032E00080504269921E8A4201D800207047826A4B
:1032F000807801FB002070472DE9F04707460D4616
:10330000022D04D307F580546069A84201D8012634
:1033100009E04FF0FF362078012807D0022833D08B
:10332000032848D001263046BDE8F08705EB550854
:103330006089216AB8FBF0F001443846FFF75CFF72
:103340000028F0D160894146B1FBF0F200FB121178
:1033500008F1010817F80190B8FBF0F0216A014468
:103360003846FFF749FF0028DDD16089B8FBF0F14E
:1033700000FB1180385C49EA0020E90701D006090A
:10338000D1E7C0F30B06CEE76089216A4008B5FBA0
:10339000F0F001443846FFF72FFF0028C3D16189C0
:1033A0006800B0FBF1F201FB12003844017840786C
:1033B00041EA0026B7E76089216A8008B5FBF0F092
:1033C00001443846FFF718FF0028ACD16189A800F6
:1033D000B0FBF1F201FB120038440178C27841EAF7
:1033E000026182784078120442EA0020014321F011
:1033F000704698E72DE9F04707460D461646022D20
:1034000004D307F580546069A84203D802208BE7F3
:103410002C340020207806F0FF0A4FF00108012824
:1034200005D0022841D0032858D002207CE705EBC4
:1034300055096089216AB9FBF0F001443846FFF76D
:10344000DBFE0028E3D14846618909F10109B0FBA0
:10345000F1F201FB12003844E90703D001786AF366
:103460001F1100E03146017084F804806089216AF0
:10347000B9FBF0F001443846FFF7BEFE0028C6D184
:103480006189B9FBF1F201FB12913944EA0702D0DC
:10349000C6F3071205E00A78C6F3032302F0F00230
:1034A0001A430A7084F804803EE76089216A400864
:1034B000B5FBF0F001443846FFF79EFE0028A6D188
:1034C00062896900B1FBF2F302FB1311394481F800
:1034D00000A0320A4A7084F8048025E76089216AD6
:1034E0008008B5FBF0F001443846FFF785FE002860
:1034F0008DD16289A900B1FBF2F302FB13113944AB
:103500004FF07043CA7803EA026232430A70130A2A
:103510004B70130C8B70120ECA7084F8048003E792
:103520002DE9F04180460F46022F04D308F5805460
:103530006069B84201D8022625E0002620E039461D
:103540004046FFF7D9FE0546EDB1012D0AD0681CB3
:103550000AD0002239464046FFF74CFF06463000AD
:1035600011D103E002260EE001260CE02069411C87
:1035700005D0401C2061607940F0010060712F4649
:103580006069B842DBD8304634E62DE9F041804628
:103590000F4608F58055002F07D039464046FFF703
:1035A000ABFE022808D2012024E6EE6816B1686955
:1035B000B04207D8012605E0411CF5D06969814277
:1035C000F2D83E463446641C6869A04204D80224FE
:1035D000022E01D200200DE621464046FFF78CFE68
:1035E00038B1411CE0D00128DED0B442EBD100203C
:1035F00000E66FF0704221464046FFF7FBFE28B917
:1036000027B1224639464046FFF7F4FE20B1012893
:103610000DD001242046EDE5EC602869411CF9D06D
:10362000401E2861687940F001006871F2E74FF0B0
:10363000FF34EFE700F58050426A121D006800F584
:103640008050438980784343B1FBF3F002CA21B133
:10365000884204D211680844704700207047401A1D
:10366000121DF3E770B50D4600F58054E580A368A0
:10367000012B05D0206800F580504169994201D89E
:10368000022070BD1BB90178032900D1436A23B120
:10369000418980784E0946431AE00189A94201D840
:1036A000022070BD406A19E019462068FFF724FE29
:1036B0000346581C09D0022B05D3206800F5805022
:1036C0004069984203D8022070BD012070BDAD1B37
:1036D000B542E9D219462068FFF700FEE360A0B1C9
:1036E00021680A4601F580514B895B09B5FBF3F36C
:1036F0001844206148894009B5FBF0F100FB1150E6
:1037000002EB40106061002070BD022070BD2DE909
:10371000F0410E4600F58054E7887F1C3804000C09
:103720000DD0216959B12268104602F580525389A3
:103730005B09B7FBF3F503FB157313B170E00420CD
:1037400058E5491C2161E16871B1538992785B09A0
:10375000B7FBF3F3521E134262D1FFF7CDFD0546CE
:10376000012D06D8022045E51089B84258D804201A
:1037700040E5681C16D0206841F214010958A9429E
:1037800048D88EB1E168FFF700FF054628000DD04C
:10379000012D0DD0681C0DD02068FFF703FD58B136
:1037A000012027E5012025E5042023E5072021E568
:1037B00002201FE501201DE541F20A0120680A5A96
:1037C0000021FFF712FC29462068FFF787FD2168DA
:1037D00001F58051C86200264FF001080EE080F824
:1037E00004802068FFF7DEFC08B1012002E52068B4
:1037F00000F58050C16A491CC162761C206800F542
:1038000080508178B142EAD8216801F58051C96AB7
:10381000891BC162E56029462068FFF75FFD2061D2
:10382000E78041F20A012068095A4909B7FBF1F221
:1038300001FB127100EB411060610020DAE42DE918
:10384000F04107460E4600213846FFF70BFF98B9B6
:10385000002507F5805421692068FFF7CDFC58B991
:1038600061690A78E52A0BD052B10025012138465A
:10387000FFF74DFF0028EED0042800D10720B9E45F
:103880006D1CB542F8D0F1E70246887ECB7E40EA57
:10389000032002F580521278032A05D10A7D497D62
:1038A00042EA012140EA0140704781760A0AC27665
:1038B0000A0C0275090E417570472DE9F05F8146CB
:1038C0000F46387820F04000401E00EB800101EBED
:1038D000C00400260125DFF868A407F101084FF6AF
:1038E000FF7B1AF80600395C10F8080041EA002056
:1038F0007DB101F051FB0546FF2C07D22046641C28
:1039000039F8100001F048FBA84206D00020BDE8BD
:10391000F09F584501D00020F9E7761C0D2EE0D32A
:103920003878400605D525B139F8140008B10020D3
:10393000EDE70120EBE72DE9F0410A7802F03F02C4
:10394000521E02EB820303EBC20200230125FC4F4F
:103950004E1C4FF6FF7CFC5C11F80480A45D48EA25
:1039600004244DB1FF2A01D3002043E490462546AC
:10397000521C20F8184003E0644501D0002039E4CF
:103980005B1C0D2BE7D30978490606D5FF2A01D326
:1039900000202FE4002120F8121001202AE42DE954
:1039A000F0434B730F23CB7200230B738B76CB76D4
:1039B000531E03EB830404EBC30500231C46E04EB7
:1039C00001F1010C4FF6FF77BB4203D02B466D1C73
:1039D00030F8133016F8048001F8083016F8049017
:1039E0004FEA132809F80C8003B93B46641C0D2CE0
:1039F000EAD3BB4202D030F8150008B942F04002C9
:103A00000A70BDE8F0837CB5054616461C460B22BD
:103A10002846FFF7E1FA052C11D9CA480CE0B61C7C
:103A2000002322460C4662F35F044908E20300D5F6
:103A300044405B1C102BF4D331880029EFD10721BF
:103A40006B4604F00F023032392A01D9D21DD2B2AE
:103A50000846491E1A542409002CF2D17E205854DD
:103A6000002200E0521C8A4202D2A85C2028F9D130
:103A7000082903D20846491C185C00E0202014469F
:103A8000521C2855082AF3D37CBD014600200B2286
:103A9000430803EBC01011F8013B1844C0B2521E9A
:103AA000F6D170472DE9F05F834600215846FFF7B5
:103AB000D9FD002859D1FF26B1460BF580544FF6A9
:103AC000FF7AA4F824A021692068FFF795FB8046BF
:103AD0005FEA080048D167693D7865B1F87A00F07F
:103AE0003F00E52D03D0010708D50F2806D0FF269B
:103AF000A4F824A030E04FF0040835E00F2801D0EE
:103B0000CEB11DE0206A38B3690606D597F80D904E
:103B100025F040052E46E188A184B54208D1797B85
:103B2000494505D13946FFF7C8FE08B1761E00E0C9
:103B3000FF26F6B210E03846FFF7A7FF484513D03E
:103B4000A169C87AC00704D10B223846FFF755FA9D
:103B500050B1FF26A4F824A000215846FFF7D7FD56
:103B600080465FEA0800AED04046D0E62DE9F04737
:103B700082468946FF26B04604270AF5805548E06C
:103B80002868FFF739FB0746380045D16869047893
:103B90007CB1C17A01F03F01E52C08D02E2C06D073
:103BA00021F02002082A06D000224A4505D0FF262F
:103BB0001FE0042730E00122F7E70F2901D026BBE0
:103BC0001FE0610606D590F80D8024F040042646DB
:103BD000E988A984B4420AD1417B414507D12A6AC8
:103BE00001461046FFF7A7FE08B1761E00E0FF264B
:103BF000F6B200215046FFF78AFD0746380008D08C
:103C00000AE0FFF742FF404506D04FF6FF70A88458
:103C100002E029690029B3D10FB10020286138469C
:103C200004E42DE9FE43074607F58054D4F81880D4
:103C3000266A0C2241466846FFF7CEF99DF80B0034
:103C4000C0071AD0002088F80B00206201252B46FF
:103C5000324669464046FFF7D6FE3846FFF722FF58
:103C600010B96D1C642DF2D3642D0CD004280BD137
:103C70009DF80B0088F80B0026629DF80B0080076A
:103C80000ED5002003E00720BDE8FE83401C36F877
:103C900010100029FAD119300D21B0FBF1F600E027
:103CA000012631463846FFF7CAFD05464FF00108A8
:103CB00035BB761E24D0E088811B3846FFF7D2FC46
:103CC000054628001CD1A069FFF7DFFE8146216967
:103CD0002068FFF791FA054695B9F2B24B46616943
:103CE000206AFFF75CFE206800F5805080F80480B1
:103CF00000213846FFF70BFD05460DB9761EE6D1CB
:103D0000DDB921692068FFF777FA0546280014D14C
:103D1000202200216069FFF768F9D4E905010B2230
:103D2000FFF75AF9A0696169C07A00F018000873BA
:103D3000206800F5805080F804802846A4E7000041
:103D40001C540008211001002DE9F0410E4606F137
:103D5000090400F580500169002937D04369002526
:103D600029466D1C5A5C202A17D0052A00D1E5226D
:103D7000092D02D12E2104F8011BA2F141011929BC
:103D800009D81F7B092D01D3102100E008210F4223
:103D900001D02032D2B204F8012B0B2DE0D3D97A16
:103DA0003172197FDA7F5D7F41EA02619A7F1204E6
:103DB00042EA052211433160197E5A7E41EA02210E
:103DC000B180997DDA7D41EA0221F18000272770D8
:103DD000D6F81880B8F1000F21D000250169E1B1B3
:103DE000F169D1B1818CA1F57F42FF3A15D0046A07
:103DF0000FE0002101F0B8F828B1F169491EA9428D
:103E000003D8002509E0002507E029466D1C08F8C5
:103E1000010034F8020B0028EBD108F805708FE49C
:103E20002DE9F84F8846D8F8005000E06D1C29783D
:103E30002F29FBD05C29F9D000F580500090D0F8F4
:103E40002090002426463046761C285C202808D383
:103E50002F2806D05C2804D0FF2C09D30620BDE80B
:103E6000F88FA919C8F80010202817D204261FE0DF
:103E7000C0B2012101F078F8074647B1802F08D27F
:103E80003946FCA0FFF7C6F818B10620E7E7062080
:103E9000E5E72046641C29F81070D4E7002607E007
:103EA000601E39F81000202801D02E2802D1641E8F
:103EB000002CF5D154B1002029F8140000980B22F1
:103EC00020218069FFF791F8002702E00620C6E76D
:103ED0007F1C39F817002028FAD02E28F8D01FB1FF
:103EE00046F0030600E0641E24B1601E39F810009D
:103EF0002E28F8D14FF00008C2464FF0080B384684
:103F00007F1C39F8105005B3202D03D02E2D04D17D
:103F1000A74202D046F00306F1E7DA4501D2A742F4
:103F200019D1BBF10B0F0ED0A74201D046F003060A
:103F30000BD827464FF0080A4FF00B0B4FEA88606A
:103F40004FEA1068DBE746F00306009880690178C5
:103F5000E5292ED02FE0802D0BD30021284601F03B
:103F600003F805461DB1C648284410F8805C46F0A9
:103F7000020625B12946C3A0FFF74CF818B15F250A
:103F800046F003060EE0A5F14100192802D848F0DA
:103F9000020807E0A5F16100192803D848F00108DC
:103FA000203DADB20098816950460AF1010A0D54D6
:103FB000A5E705210170BBF1080F03D14FEA886026
:103FC0004FEA1068C8F38100032803D06FEA0801A4
:103FD000890701D146F00206B10709D408F00301B0
:103FE000012901D146F01006012801D146F008064A
:103FF00000988069C672002031E773B505460199C3
:1040000008782F2801D05C2801D1491C019105F5C1
:1040100080540026A66001980078202805D200214F
:104020002846FFF71FFB66617CBD01A92846FFF704
:10403000F7FE0028F8D12846FFF734FDA169C97AB8
:1040400028B10428F0D14907EED405207CBD4907EA
:10405000FCD46169C87AC00601D405207CBD206803
:10406000FFF712FCA060E0E710B504464FF0FF3008
:104070002368002B0BD0194600E0491C0A78202A3F
:1040800001D33A2AF9D10A783A2A01D0002010BD8A
:1040900013F8012B303A0A2AF9D28B42F7D1002AC1
:1040A000F5D11046491C216010BD10B5044604F539
:1040B000805000220271521EC2622046FFF79CF817
:1040C00008B1032010BD94F8FE0194F8FF1140EAF6
:1040D0000120A0F52A41553901D0022010BD14F865
:1040E000360FE178627840EA0161A078363C00043E
:1040F00040EA022001436548B0EB012F01D10020C6
:1041000010BD14F8521FE278637841EA0261A27888
:10411000120442EA03221143B0EB012F01D1002027
:1041200010BD012010BD2DE9FF5F0546084617466A
:104130004FF00008C5F80080FFF796FF06463000F4
:1041400002D50B2004B010E5514850F826409CB130
:104150002C6004F58055287820B16878FEF7F8FEC9
:10416000C1070BD085F80080F0B26870FEF7F9FE49
:10417000C1070AD00320E5E70C20E3E71FB14007A1
:1041800001D50A20DEE70020DCE71FB1400701D59A
:104190000A20D7E741F20A01621868780221FEF787
:1041A0000BFF30B96889B0F5007F02D3B0F5805FAE
:1041B00001D90120C6E7002631462046FFF775FFEA
:1041C000012829D100216F4604EB011000F5DF70B2
:1041D000027952B1027AC37A42EA0362837A407A60
:1041E0001B0443EA0020024300E0002247F821209C
:1041F000491C0429E8D34FF0000957F8296026B17B
:1042000031462046FFF751FF00E0022020B109F1BE
:104210000109B9F1040FF0D3032802D018B10D2021
:1042200090E701208EE7E07A217B6B8940EA01204C
:10423000984201D00D2085E7A07DE17D40EA012074
:1042400058B914F8240FE178627840EA0160A17847
:104250000904243C41EA02210843A86194F810A013
:1042600085F803A0BAF1010F14D0BAF1020F11D0F2
:104270000D2067E7222A3A3C3E3F7C7F0000000089
:104280009C5300082B2C3B3D5B5D000000464154D5
:10429000B80200200AFB00FA677BAF7017B1791EE5
:1042A0000F4201D00D204DE7617CA27C41EA022241
:1042B0002A814FEA531CB2FBFCF10CFB112109B11E
:1042C0000D203FE7E17C94F8149041EA092179B987
:1042D00094F8201094F8239094F821B041EA0961F1
:1042E00094F822904FEA094949EA0B2941EA090169
:1042F00094F80E9094F80FB049EA0B29B9F1000F29
:1043000008D0B2FBFCFC09EB0A0BDC44614503D28C
:104310000D2017E70D2015E7A1EB0C01B1FBF7F11C
:1043200049B3012740F6F67B594500D302274FF6E3
:10433000F67B594500D30327891C6961EE61B144BE
:10434000C5F82090B444C5F828C0032F15D052B347
:1043500009EB0A026A62022F27D001F0010201EB89
:10436000410102EB5101491E1944B1FBF3F18142B5
:104370001DD90D20E6E60D20E4E60AB10D20E1E6A8
:1043800094F82C2094F82FC094F82D9042EA0C62F7
:1043900094F82EC04FEA0C4C4CEA092C42EA0C026D
:1043A0006A628900DFE70D20CCE64900DBE74FF0C9
:1043B000FF302861E86080206871032F52D194F8A3
:1043C000300094F8311040EA012001284AD1711CD4
:1043D0002046FEF711FFE8BB85F8058094F8FE0142
:1043E00094F8FF1140EA0120A0F52A41553939D14E
:1043F0002078E178627840EA0160A178090441EA16
:1044000002210843FB4988422CD194F8E40194F836
:10441000E71194F8E52140EA016094F8E6110904F7
:1044200041EA02210843F44988421BD104F5F4749F
:104430002078E178627840EA0160A178090441EAD5
:104440000221084328612079E17940EA0160A179DD
:10445000090400E006E06279A4F5F47441EA02215F
:104460000843E8602F70E5490888401C0880E88010
:104470002046FEF787FE002064E610B5002810D025
:1044800000F58050016861B101F580510A7842B1B0
:10449000CA888088824204D14878FEF759FDC00757
:1044A00001D0092010BD002010BD2DE9F74181B0D9
:1044B0001646029800906846FFF7D6FD0446002C89
:1044C00002DA0B2004B0AAE4CC4F3F1D57F8245069
:1044D0004FF0000835B12846FEF754FE05F580552B
:1044E00085F800800198002803D04FF4805101F82E
:1044F000008047F8240001D0012E01D00020E1E720
:10450000002202A901A8FFF70EFEDBE72DE9F74F15
:10451000ADF5825D002814D000F580574FF00008FB
:10452000C7F8008002F01F0641F24401694426F0FA
:104530000102A1F12C00FFF7F6FD0446200006D091
:10454000D3E0092013B00DF5805DBDE8F08F0DF5C7
:10455000805103A80863AA4888630DF11809496CC3
:104560004846FFF74AFD04460DF58050C56A5CB920
:104570001DB1700803D0012102E0062404E00021EF
:104580004846FEF74FFD044616F01C0F66D084B176
:10459000042C08D1FEF77BFD20B14846FFF741FB14
:1045A000044600E0122446F008060DF58050C56A66
:1045B00008E0E87A10F0110F01D0072402E070073C
:1045C00000D50824F4BB300753D5FCF732FBA873A1
:1045D000010AE973010C2974000E687485F80B80D8
:1045E00085F81C8085F81D8085F81E8085F81F8061
:1045F0000DF5805029468069FFF746F98246002173
:104600002846FFF752F90DF580500121806900F529
:1046100080500171BAF1000F2BD00DF580508069E8
:1046200000F58050D0F82CB00DF5805051468069CF
:10463000FEF776FF044620001BD1AAF1010A0DF512
:10464000805200E015E0906900F58050C0F80CA0A1
:1046500059469069FEF7D0FD04460AE04CB9E87A65
:10466000C10601D5042404E0B10702D5C00700D07B
:104670000724B4B9300701D546F020060DF5805067
:10468000806900F58050C06AF8613D62700801D011
:10469000012100E000214846FEF70BFDB86200B999
:1046A000022414BBBE7187F807800DF5805029469F
:1046B0008069FFF7E9F83861287FE97F6A7F40EA7F
:1046C0000160A97F090441EA02210843F860C7F8A4
:1046D0000880C7F81880C7F824800DF580508069DD
:1046E000386000F58050C088B88020462AE72DE960
:1046F000F05F82468846164699460020C9F80000B9
:104700005046FFF7BAFE00280FD10AF58054E07931
:1047100000280AD1A079C00706D0D4E90210401AB7
:10472000864200D90646B1E00720BDE8F09F226826
:10473000A168134602F580525089B1FBF0F500FBE9
:104740001515002D7ED1B1FBF0F09278521E10406D
:10475000C5B2A5B929B1606A28B15046FEF76AFF13
:1047600005E0206903E018466169FEF7C5FD0228EF
:1047700002D20220E071D8E7411C1DD0606161695E
:104780002068FEF7ABFDD0B100EB050B206800F50B
:1047900080504189B6FBF1F75FB38178EA198A420C
:1047A00000D94F1B40783B465A464146FEF7ECFB8A
:1047B00040B10120E071B8E70120E071B5E70220C7
:1047C000E071B2E7A07940060DD5A069A0EB0B001F
:1047D000B84208D2216801F580514A89514600FB50
:1047E0000280FEF7F9FB206800F5805045897D4383
:1047F00042E007E05252614172724161B40200200E
:1048000044340020A2695A451DD0A17949060CD52F
:10481000407801235146FEF7C3FB10B10120E0713F
:1048200083E7A07920F04000A0712068012300F503
:1048300080505A4640785146FEF7A6FB18B1012039
:10484000E07172E701E0C4F818B02068A16800F5D3
:1048500080504089B1FBF0F200FB1212851AB5427C
:1048600000D93546B1FBF0F200FB121000EB0A0153
:104870002A464046FEF7B0FBA844A0682844A06042
:10488000D9F800002844C9F80000761B002E7FF4F8
:104890004EAF002049E770B505462846FFF7EDFD0D
:1048A000002811D105F58054A27991060CD5500647
:1048B0000FD52068012300F5805029464078A26971
:1048C000FEF76EFB08B1012070BDA07920F040001A
:1048D000A071E1692068FEF78FFC0028F4D1256AF9
:1048E000E87A40F02000E872207B2877A089000A4F
:1048F0006877E068000CA877E068000EE877284643
:104900002169FEF7D2FFFCF794F9A875010AE97551
:10491000010C2976000E68760020A874E874A0794E
:1049200020F02000A0712068012100F58050017165
:104930002068BDE87040FEF77BBC10B504462046F9
:10494000FFF7A9FF00280DD12046FFF796FD0028AC
:1049500008D104F58054A06AFEF7FBFB002801D1C2
:104960000021216010BD2DE9F84F80460D464046DC
:10497000FFF783FD0090009810B10098BDE8F88F14
:1049800008F58054E0790028F8D1676A4FF0010AF1
:10499000002F7CD0681C34D0E068A84200D20546C5
:1049A000A560002D58D0691E4046FEF743FE6061A9
:1049B000226801461046FEF791FC0146A1B320682B
:1049C0006D1E00F580504289B5FBF2F385786D1EAF
:1049D0002B405D18A168B1FBF2F302FB1311002913
:1049E000E0D0A269AA42DDD0A179490644D5407839
:1049F00001234146FEF7D4FA78B384F807A00120DA
:104A0000BCE757F804BB02262169F9B189460025A5
:104A1000B61C88466D1C2068FEF76EFC0146012915
:104A200003D80220E071A9E71FE0481C16D008F166
:104A300001084145EDD05E4502D820C747F8049BE8
:104A4000206800F5805040698842DFD8606A0660BF
:104A50005E4507D800203860CCE009E084F807A064
:104A600001208BE711200090C4E00220E07185E76F
:104A7000A07920F04000A0712068012300F580504B
:104A80002A4640784146FEF77FFA28B100E005E06B
:104A900084F807A0012071E7A561ABE0E068A842B7
:104AA00003D2A179890700D40546A0680027A76032
:104AB0001DB321680A4601F580518E7849894E431D
:104AC00068B1691E401EB1FBF6F1B0FBF6F39942E6
:104AD00005D3711E8843A0602D1A61690CE021691D
:104AE00049B900211046FEF750FD0146012905D0C5
:104AF000481C06D02161616159BB42E00220E0718F
:104B00003CE784F807A0012038E7A079800706D5A4
:104B10002068FEF73AFD014629B935461BE02068BA
:104B2000FEF7EAFB0146481C0AD0012905D9206896
:104B300000F580504069884206D80220E0711DE7E8
:104B400084F807A0012019E76161A0683044A060E3
:104B5000AD1BB542D9D8A0682844A06041F20A0232
:104B60002068125AB5FBF2F302FB13524AB1FEF76A
:104B7000B5FB00B3216801F580514989B5FBF1F11E
:104B80000F182068A16800F580504289B1FBF2F34C
:104B900002FB131129B3A269BA4222D0A1794906B6
:104BA00010D5407801234146FEF7FAF930B184F878
:104BB00007A00120E2E60220E071DFE6A07920F004
:104BC0004000A0712068012300F580503A464078EB
:104BD0004146FEF7D9F918B184F807A00120CDE6C7
:104BE000A761D4E90201884204D9E060A07940F0CD
:104BF0002000A0710098C1E6F3B585B00646002EEE
:104C00000AD0002206A904A8FFF78DFA054600275E
:104C100006F580541DB133E0092007B0F0BD0498BB
:104C2000206001A8A0614A48206230460699FFF73B
:104C3000E4F90546FDB9616941B1C87AC00604D5F9
:104C40000498FEF721FEA06000E005259DB90498B8
:104C500000F58050C088A08000213046FEF702FD9C
:104C6000054645B9A06838B100213046FEF721FA63
:104C7000E06100B9122500E0E761042D00D10525AF
:104C800005B127602846C8E710B504462046FFF75F
:104C9000F4FB00280AD104F58054E16911B10846FB
:104CA000FEF757FA002801D10021216010BDFEB5A2
:104CB00005460E462846FFF7E0FB002812D16EB1EC
:104CC00005F58054C4F818D02148206200212846F8
:104CD000FEF74CFF0027042805D006E000212846F7
:104CE000FEF7C0FCFEBD276100200028FAD1314646
:104CF0002846FFF729F800212846FEF708FD04287A
:104D0000F0D127610020FEBDF8B504460E460A2EFC
:104D100003D10D212046FFF7F7FF6068002816DB5E
:104D2000451C204406733D2D0DDB6B462A4604F1DD
:104D30000C01206800F00EF80098A84201D100256F
:104D400001E04FF0FF356560A068401CA060F8BD31
:104D5000443400202DE9F05F824688461646994685
:104D60000020C9F800005046FFF787FB002808D153
:104D70000AF58054E079002803D1A079800702D495
:104D80000720BDE8F09FA068811900D30026BBE092
:104D90002268A16802F580535889B1FBF0F500FB49
:104DA0001515002D75D1B1FBF0F09B785B1E1840F6
:104DB000C5B215BB29B1606A50B15046FEF73AFC46
:104DC0000AE0206940B900211046FEF7DEFB03E04F
:104DD00010466169FEF7D9FB00287DD0012805D077
:104DE000411C06D06061216931B106E00220E0710A
:104DF000C7E70120E071C4E72061A079400610D523
:104E00002068012300F5805051464078A269FEF7E2
:104E1000C7F810B10120E071B3E7A07920F040009D
:104E2000A07161692068FEF759FAB8B100EB050B73
:104E3000206800F580504189B6FBF1F757B38178BF
:104E4000EA198A4200D94F1B40783B465A464146F0
:104E5000FEF7A6F828B10120E07192E70220E07188
:104E60008FE7A069A0EB0B00B8420CD2216801F5D6
:104E700080514A8900FB02815046FEF7ADF8A079C7
:104E800020F04000A071206800F5805045897D43E6
:104E900030E013E0FFE7A16959450DD0D4E90212D3
:104EA000914209D2407801235A465146FEF76CF8E8
:104EB00010B10120E07164E7C4F818B02068A1685F
:104EC00000F580504089B1FBF0F200FB1212851A08
:104ED000B54200D9354600E019E0B1FBF0F200FB25
:104EE000121050442A464146FEF776F8A07940F069
:104EF0004000A071A844A0682844A060D9F8000030
:104F00002844C9F80000761B002E7FF441AFD4E995
:104F10000201884200D9E060A07940F02000A07131
:104F200000202EE730B5044601200E4B5D7A012D9E
:104F300015D8587A00251D54587A03EB8000446038
:104F40005C7A03F108002254587A421C5A723030BD
:104F500008703A2048702F208870CD70002030BD36
:104F60000022DFE744360020802804D3134A39B1F9
:104F7000FF2801D900207047803832F810007047B0
:104F8000002132F81130834203D0491C89B28029B4
:104F9000F7D38031C8B270470021094B00E0491CAB
:104FA00033F811200AB18242F9D133F81120002AD6
:104FB00002D0044830F81100704700005654000831
:104FC0005655000836570008D2B201E000F8012B10
:104FD000491EFBD270470022F6E710B513460A4679
:104FE00004461946FFF7F0FF204610BD421E12F896
:104FF000013F002BFBD111F8013B02F8013B002BD4
:10500000F9D1704730B505462A460B4612F8010B18
:1050100013F8014B08B1A042F8D01CB1002802D00F
:105020006D1CF1E7284630BD10B5044604E00B784E
:1050300000F8013B03B1491C521EF8D2204610BDB6
:10504000421C10F8011B0029FBD1801A704703464F
:1050500011F8012B00F8012B002AF9D118467047EE
:1050600010B508E00A4602E0A34208D0521C1378AB
:10507000002BF9D1401C0478002CF3D1002010BD86
:1050800030B50B46014600202022012409E021FA18
:1050900002F59D4205D303FA02F5491B04FA02F515
:1050A0002844151EA2F10102F1DC30BD064C074D6B
:1050B00006E0E06840F0010394E8070098471034E8
:1050C000AC42F6D3FBF738F81859000838590008F5
:1050D00070B58C1810F8015B15F0070301D110F8BA
:1050E000013B2A1106D110F8012B03E010F8016BE7
:1050F00001F8016B5B1EF9D12B0705D40023521E6A
:105100000DD401F8013BFAE710F8013BCB1A921CD1
:1051100003E013F8015B01F8015B521EF9D5A142CF
:10512000D8D3002070BD00000FB4084B10B504A9FF
:1051300002AA039800F01CF8044602A9002000F01F
:10514000C1F8204610BC5DF814FB0000C5520008F1
:1051500002E008C8121F08C1002AFAD17047704740
:10516000002001E001C1121F002AFBD1704700009E
:105170002DE9FF4F89B09B460446002506E025280F
:105180000BD05A460B999047641C6D1C2078002860
:10519000F5D10DB02846BDE8F08F0027B8460122B2
:1051A000474900E0074314F8013F203B02FA03F0AF
:1051B0000842F7D120782E2819D114F8010F47F0B2
:1051C00004072A280ED06FF02F022078A0F13001BA
:1051D00009290CD808EB880102EB410100EB01081A
:1051E000641CF2E70A98641C50F8048B0A9020783B
:1051F0000028CED0642808D0692806D075281ED093
:105200005A460B9990476D1C58E00A994FF00A09CD
:1052100001C90A91002802DA40422D2102E0390535
:1052200004D52B218DF82010012103E0F90704D0CB
:105230002021F7E78A4608AE0DE00021FAE70A9937
:105240004FF00A0901C90A91F7E74946FFF718FF2D
:10525000303106F8011D0028F7D1ADEB060000F152
:105260002009780701D44FF00108C84502DDA8EBFA
:10527000090000E000208046002706E008A85A4602
:10528000C05D0B9990476D1C7F1C5745F6DB04E011
:1052900030205A460B9990476D1CB8F10001A8F1D7
:1052A0000108F5DC05E016F8010B5A460B9990470A
:1052B0006D1CB9F10001A9F10109F4DC641C65E77A
:1052C000092801000A68531C0B6010707047000029
:1052D00010B5002821D0114B0022001F196803E0EF
:1052E000814203D80A4649680029F9D152B11368AE
:1052F000841A9C4204D1006818441060104602E0F1
:10530000506000E0186039B102680B1A934203D173
:105310000B681A4402604968416010BDBC0200205D
:10532000F0B50B30154D20F007010024144A0FE0B2
:1053300003688B420BD38B4205D95E1A431847682A
:10534000C3E9006700E04368136002C004E0021D87
:1053500010680028ECD12046002802D1286808B146
:105360000020F0BD064A07481060074A121A22F0D2
:105370000702C0E9002401202860D7E7C00200200E
:10538000BC020020543600205056002000000000CF
:10539000000000000102030406070809809A90B685
:1053A0008EB78F80D2D3D4D8D7DE8E8F909292E2F0
:1053B00099E3EAEB59999A9D9C9D9E9FB5D6E0E9A9
:1053C000A5A5A6A7A8A9AAABAC21AEAFB0B1B2B3B0
:1053D000B4B5B6B7B8B9BABBBCBDBEBFC0C1C2C315
:1053E000C4C5C7C7C8C9CACBCCCDCECFD0D1D2D304
:1053F000D4D5D6D7D8D9DADBDCDDDEDFE0E1E2E3F5
:10540000E5E5E6E7E7E9EAEBEDEDEEEFF0F1F2F3E3
:10541000F4F5F6F7F8F9FAFBFCFDFEFF01030507CA
:10542000090E10121416181C1E00000400020001C0
:10543000800040002000100008000400020000006E
:1054400000800040002000100008004000200010F4
:10545000000800040002C700FC00E900E200E400CC
:10546000E000E500E700EA00EB00E800EF00EE00F6
:10547000EC00C400C500C900E600C600F400F60058
:10548000F200FB00F900FF00D600DC00F800A300EA
:10549000D800D7009201E100ED00F300FA00F1001E
:1054A000D100AA00BA00BF00AE00AC00BD00BC0035
:1054B000A100AB00BB009125922593250225242550
:1054C000C100C200C000A9006325512557255D25F4
:1054D000A200A5001025142534252C251C25002507
:1054E0003C25E300C3005A2554256925662560251F
:1054F00050256C25A400F000D000CA00CB00C800E5
:105500003101CD00CE00CF0018250C25882584253B
:10551000A600CC008025D300DF00D400D200F50027
:10552000D500B500FE00DE00DA00DB00D900FD008A
:10553000DD00AF00B400AD00B1001720BE00B60022
:10554000A700F700B800B000A800B700B900B3008A
:10555000B200A025A0006100620063006400650045
:1055600066006700680069006A006B006C006D00EF
:105570006E006F007000710072007300740075009F
:1055800076007700780079007A00A100A200A300DD
:10559000A500AC00AF00E000E100E200E300E400A1
:1055A000E500E600E700E800E900EA00EB00EC00B7
:1055B000ED00EE00EF00F000F100F200F300F40067
:1055C000F500F600F800F900FA00FB00FC00FD0011
:1055D000FE00FF00010103010501070109010B01A4
:1055E0000D010F01110113011501170119011B0113
:1055F0001D011F01210123012501270129012B0183
:105600002D012F0131013301350137013A013C01F0
:105610003E01400142014401460148014B014D0158
:105620004F01510153015501570159015B015D01C2
:105630005F01610163016501670169016B016D0132
:105640006F0171017301750177017A017C017E019F
:105650009201B103B203B303B403B503B603B703B6
:10566000B803B903BA03BB03BC03BD03BE03BF0346
:10567000C003C103C303C403C503C603C703C803F0
:10568000C903CA033004310432043304340435043A
:1056900036043704380439043A043B043C043D041E
:1056A0003E043F04400441044204430444044504CE
:1056B00046044704480449044A044B044C044D047E
:1056C0004E044F0451045204530454045504560428
:1056D0005704580459045A045B045C045E045F04D4
:1056E0007021712172217321742175217621772116
:1056F000782179217A217B217C217D217E217F21C6
:1057000041FF42FF43FF44FF45FF46FF47FF48FF7D
:1057100049FF4AFF4BFF4CFF4DFF4EFF4FFF50FF2D
:1057200051FF52FF53FF54FF55FF56FF57FF58FFDD
:1057300059FF5AFF00004100420043004400450069
:1057400046004700480049004A004B004C004D000D
:105750004E004F00500051005200530054005500BD
:1057600056005700580059005A002100E0FFE1FFA1
:10577000E5FFE2FFE3FFC000C100C200C300C400B8
:10578000C500C600C700C800C900CA00CB00CC00D5
:10579000CD00CE00CF00D000D100D200D300D40085
:1057A000D500D600D800D900DA00DB00DC00DD002F
:1057B000DE007801000102010401060108010A016E
:1057C0000C010E01100112011401160118011A0139
:1057D0001C011E01200122012401260128012A01A9
:1057E0002C012E01300132013401360139013B0117
:1057F0003D013F0141014301450147014A014C017F
:105800004E01500152015401560158015A015C01E8
:105810005E01600162016401660168016A016C0158
:105820006E01700172017401760179017B017D01C5
:1058300091019103920393039403950396039703B5
:10584000980399039A039B039C039D039E039F0364
:10585000A003A103A303A403A503A603A703A8030E
:10586000A903AA0310041104120413041404150458
:1058700016041704180419041A041B041C041D043C
:105880001E041F04200421042204230424042504EC
:1058900026042704280429042A042B042C042D049C
:1058A0002E042F0401040204030404040504060466
:1058B0000704080409040A040B040C040E040F0472
:1058C00060216121622163216421652166216721B4
:1058D000682169216A216B216C216D216E216F2164
:1058E00021FF22FF23FF24FF25FF26FF27FF28FF9C
:1058F00029FF2AFF2BFF2CFF2DFF2EFF2FFF30FF4C
:1059000031FF32FF33FF34FF35FF36FF37FF38FFFB
:1059100039FF3AFF0000000038590008000000205D
:10592000C4020000D0500008E8590008C40200205A
:105930008C730000605100084102130129143918CA
:105940000D154D656E7520413204420306124669FD
:105950006C657372026A05280008105365747469D7
:105960006E67391CA90C000810526573746172745B
:105970002970297C6908091678297069A429505072
:1059800008014E756D4C454472483290EA0628660F
:1059900044656C617972641AE819EA0728E643796C
:1059A000636C65292069240114021B0239F4011774
:1059B00029EC011829E8011829DC011829D001185F
:1059C000021B08021B09021B0A320113190B1B08D8
:1059D00033041A41041A83041ACD040124293C8299
:0859E000100410A24A040000AB
:0400000508000131BD
:00000001FF
