:020000040800F2
:100000006056002045010008310E0008330E00083C
:10001000370E00083B0E00083F0E000800000000ED
:10002000000000000000000000000000430E000877
:10003000450E000800000000470E0008490E0008A9
:100040005F0100085F0100085F0100085F01000810
:100050005F0100085F0100087B1100084B120008D7
:100060005F0100085F0100085F0100085F010008F0
:100070005F010008510E00085F0100085F010008E1
:100080005F0100085F0100085F0100085F010008D0
:100090005F0100085F0100085F0100085F010008C0
:1000A0005F0100085F0100085F0100085F010008B0
:1000B000630E00085F0100085F0100085F0100088F
:1000C0005F0100085F0100085F0100085F01000890
:1000D0005F0100085F0100085F0100085F01000880
:1000E0005F0100085F0100085F0100085F01000870
:1000F0005F0100085F0100085F0100085F01000860
:100100005F0100085F0100085F0100085F0100084F
:100110005F0100085F0100085F0100085F0100083F
:100120005F0100085F0100085F0100085F0100082F
:10013000DFF80CD006F0EEFF00480047C3050008CA
:10014000605600200648804706480047FEE7FEE765
:10015000FEE7FEE7FEE7FEE7FEE7FEE7FEE7FEE777
:10016000ED400008310100082DE9F04707468846B8
:100170000020FE49086001F04AF90025AA46B8F1BE
:10018000000F0ED007EB8700F94901EBC00085682E
:1001900005EB850001EBC000D0F80CA0F548056028
:1001A0000DE007EB8700F24901EBC000456805EB65
:1001B000850001EBC000D0F80CA0EE480560EB4ACA
:1001C000166806EBD6725210D206110EE74A146872
:1001D00004EBD4725210A4EB4202D0B201F0E2F967
:1001E00000241BE0264604EBD6725210012303EBD9
:1001F000C202D1B2A14604EBD9725210A4EB420262
:10020000D0B201F0F6F8291901EB8101D84A02EBCE
:10021000C10101F1110001F073F9641C05EB8500C7
:10022000D34901EBC000C068A042DBDCBDE8F08729
:100230002DE9F04781460E4617460020CB4908605D
:1002400001F0E5F8C94A156805EBD5725210D206DF
:10025000110EC64A146804EBD4725210A4EB420289
:10026000D0B201F09FF900241AE0254604EBD572C4
:100270005210012303EBC202D1B2A04604EBD872A4
:100280005210A4EB4202D0B201F0B3F8A119C1EBB5
:10029000C101B94A02EB8101081D01F031F9641C6A
:1002A000BC42E2DDBDE8F0872DE9F041ADF5825DAD
:1002B000064600250122B1A105A805F06FFE26E043
:1002C000AB48B04BB049D0F8E42005A805F079FF61
:1002D000A749D1F80C0100F0CFFE00240DE0A3B235
:1002E000DFF8A4C2A71C1CF80720671C1CF8071025
:1002F0006746385D01F02BFBE41C1E2CEFDB4FF44E
:10030000DE63A24A0C21A24802F04AFD1E350A2DE6
:10031000D6DD0DF5825DBDE8F0819E489E490860FE
:100320007047704700B58DB0002009900A900B907F
:100330000C90079008901C21684606F080FE9748B4
:10034000934908600020486000219148816059214C
:10035000C16000210161816102F0CBF808B1FFF7B3
:10036000E0FF4FF48050099009A9894802F0EBFBA7
:1003700008B1FFF7D6FF864802F0F1F808B1FFF7A1
:10038000D0FF00200790089007A9814802F01DFEC9
:1003900008B1FFF7C6FF6020009000200190029096
:1003A00004900C2269467A4802F0FEFA08B1FFF781
:1003B000B8FF774800F00BFE0DB000BD00B587B068
:1003C00000200390049005900690019002904FF059
:1003D00080407349086041F61F4048600021704822
:1003E00081606421C16000210161816102F081F8B6
:1003F00008B1FFF796FF4FF48050039003A96848B7
:1004000002F0A1FB08B1FFF78CFF002001900290E1
:1004100001A9634802F0D9FD08B1FFF782FF07B0D8
:1004200000BD10B55F48604908604FF482704860B5
:1004300000215D488160C160016141614FF400713C
:1004400081611021C16100210162416281620A2142
:10045000C16201F0C7FF08B1FFF763FF10BD08B527
:1004600000BF5248406940F00100504948610846C9
:10047000406900F00100009000BF00BF002211465B
:100480000D2003F0C1FD0D2003F0FCFD08BD00B5FB
:1004900085B00020019002900390049000BF434873
:1004A000806940F02000414988610846806900F079
:1004B0002000009000BF00BF00BF0846806940F0E8
:1004C000040088610846806900F00400009000BFC5
:1004D00000BF00BF0846806940F0080088610846F8
:1004E000806900F00800009000BF00BF00223821A2
:1004F0002F4803F0D8FA3820019001200290002004
:1005000003900120049001A9294803F039F905B0AE
:1005100000BD00B58FB0282105A806F090FD14217C
:10052000684606F08CFD012005900004069000202E
:1005300007900120099002200C90C1030D914FF407
:10054000E0110E9105A802F0CDFD08B1FFF7E9FE1C
:100550000F20009002200190002002904FF4806054
:100560000390002004900221684623E094020020BA
:100570001800002070020020580100204652592E19
:10058000626D700004000020F00300205C26002053
:100590006C0300200400FA050CED00E000040040AC
:1005A0002C03002000380040D4020020001002403C
:1005B0000008014002F0EDFF08B1FFF7B2FE0FB0F6
:1005C00000BDADF5845D02F054FDFFF7A2FFFFF71B
:1005D0005EFFFFF744FFFFF724FFFFF7EFFEFFF793
:1005E000A1FE00F015FC00F06EFD00F07BFD01F0B7
:1005F000A3F900221021FE4803F055FA0022202121
:10060000FB4803F050FA4FF47A7000F035FD0122F8
:100610001021F74803F047FA01222021F44803F0A3
:1006200042FA00F0FDFEF34801F07DFFF249487800
:1006300003F094FD002507E02B46002211462846D2
:1006400001F085F9681CC5B2482DF5DB4FF4DE6377
:10065000EA4A0C21EA4802F0A3FB00240022E949FF
:10066000E94805F069FC10B1FFF75BFE5AE0E74985
:100670000DF5805081674FF40071C167E4A10EA8A9
:1006800006F04AF9E349087008460078002847D187
:1006900040E00DF583510EA806F0B9F9DD49087068
:1006A00008460078A0BB0DF5805090F8690078B33B
:1006B000092C2EDC00250DF58051886F06F0F4FC26
:1006C00018B10DF58050856F02E041F269056D4467
:1006D000D1A1284606F0CAFCC8B1D1A1284606F02F
:1006E000F3FC8146A9EB0500062801DD062001E0A8
:1006F000A9EB05008346C4EBC401CA4A02EB8101A1
:10070000081D5A46294606F0C3FC641C00BF01E0E0
:10071000FFE700E0BDE700BF0EA806F060F901E0CA
:10072000FFF7FFFD00258EE00A2000F0A5FCC5EBD9
:10073000C502BC4901EB8201081D06F0B5FC00F1C1
:10074000060B584606F020FE0C90C5EBC500B54AD6
:1007500002EB8000011D0C9806F0ADFCAEA10C98D8
:1007600006F078FC0122B0480C9905F017FC10B196
:10077000FFF7D7FD63E0AD4B4022A449AA4805F03E
:1007800020FDA248807CC5EBC501A64A02EB810191
:10079000C8609E48807DC5EBC50102EB8101086100
:1007A0009A48807A00F58060C5EBC50102EB8101B3
:1007B000486196488078C5EBC50102EB81018861EC
:1007C000C5EBC500114601EB8000C1689848D0F820
:1007D000E40081422DD00020C5EBC50102EB810170
:1007E000C860C5EBC5028F4901EB82010861C5EB0A
:1007F000C5018C4A02EB81014861C5EBC50102EBE2
:1008000081018861A94610E009F10102C2EBC20230
:10081000844B03EB8202111DC9EBC90203EB820278
:10082000101D06F048FC09F10109A145ECDD641E2C
:100830006D1E7D4806F070FB08B1FFF772FD0C9845
:1008400006F07AFD6D1CA542FFF66EAF0026B0469D
:10085000B24600210D91774AD2F8009009EBD97287
:100860005210D206110E734A156805EBD57252105C
:10087000A5EB4202D0B200F095FE0121002000F06D
:10088000B8FD6B48113000F03BFE6948C068471E58
:100890000CE268480068804538D066480068002847
:1008A00003DB64480068B84208DD6248006800283D
:1008B00001DA384600E000205E4908600122504617
:1008C0000D9900F04FFE5B4AD2F8009009EBD97207
:1008D0005210D206110E574A156805EBD572521008
:1008E000A5EB4202D0B200F05DFE5248D0F8008085
:1008F0000146086800EBD0714910A0EB410A4D4950
:10090000086800EBD0714910CA000D924A4800688F
:100910008642BDD0474802460568D2F8009009EBF0
:10092000D9725210D10005EBD5725210A5EB4200DE
:10093000012200F017FE40480068B04256DD3F48F3
:1009400000683C4909680844032802D1FFF7E5FC28
:10095000A1E13A48006837490968084400EB800083
:10096000334901EBC000007C002840D031480568C5
:1009700000F04DFD0021084600F014FE012100208A
:1009800000F037FD2EA000F0BBFD2C490968294A74
:100990001268114401EB8101254A02EBC101086A8A
:1009A00000F0C8FD0821002000F023FD26A000F083
:1009B000A7FD224909681F4A1268114401EB810111
:1009C0001B4A02EBC101486A00F0B4FD002101207E
:1009D00000F00FFD1EA000F093FD18490968154AAC
:1009E0001268114401EB8101114A35E046E191E0C2
:1009F000000801402C030020F01500205C26002098
:100A00006C0300208D020020F0050020F003002080
:100A10002F000000080000202E626D700000000012
:100A20002E000000580100202016002004000020A5
:100A3000180000209402002098020020700200207C
:100A40006D696E3A000000006D61783A00000000A8
:100A500056616C75653A000002EBC101C86900F08F
:100A600069FD974806684FF0000896480068964967
:100A70000968084400EB8000944901EBC000C0699C
:100A8000914908608F480068284400EB80008F4936
:100A900001EBC000476A24E08B480068804520D005
:100AA00089480068002803DB87480068B84208DDF1
:100AB00085480068002801DA384600E000208249B5
:100AC000086004220621012000F04CFD06210120CF
:100AD00000F08FFC7C48006800F02CFD7A48D0F8CC
:100AE0000080774800688642D6D07748006875490C
:100AF0000968294401EB8101744A02EBC101C86114
:100B000000207149086080461146086D0121FFF7F9
:100B10002BFBC0E06B4800686B490968084400EB98
:100B200080006A4951F8300004287DD100206649D0
:100B300008608046624806680025601B032801DDC6
:100B4000032000E0601B07463A4629462046FFF78F
:100B50006FFB74E05C480068804570D05A480068BC
:100B6000002803DB58480068B8423CDD564800685E
:100B70002844A04210DB0020534908600025601B78
:100B8000032801DD032000E0601B07463A462946A2
:100B90002046FFF74DFB26E04B480068002811DA9D
:100BA00085B10020484908602D1F601B032801DD26
:100BB000032000E0601B07463A4629462046FFF71F
:100BC00037FB10E00020404908602D1D601B032802
:100BD00001DD032001E0601B401E07463A4629461E
:100BE0002046FFF725FB012250460D9900F0BAFC84
:100BF000354AD2F800B00BEBDB725210D206110E60
:100C0000314AD2F8009009EBD9725210A9EB420296
:100C1000D0B200F0C7FC2C48D0F80080014608682C
:100C200000EBD071491001E01AE008E0A0EB410AA6
:100C30002549086800EBD0714910CA000D92204880
:100C40000068864286D01E480068864205DA1E4942
:100C500009686818FFF728FB01E0002000BF1AE0D0
:100C600018490968184A1268114401EB8101174AB2
:100C700052F831000121FFF777FA0CE011490968B9
:100C8000114A1268114401EB8101104A52F83100F7
:100C90000021FFF769FA0B48006800EB80000B4960
:100CA00001EBC000C068471E05480668F1E5084929
:100CB000884204D107490988491C064A11807047B7
:100CC00098020020700200209402002018000020EA
:100CD0002C030020B002002010B5044600F084FD73
:100CE00000F08EFD28B94748007820F00100454902
:100CF00008704448007810BD014609B101207047D2
:100D000040480078FBE72DE9F04107460E461546BE
:100D10001C4607B914B90420BDE8F08139480078B1
:100D200000F0010008B10320F6E73748007800F032
:100D3000040000B96D02012C04D12946304600F0B0
:100D4000DFFC002400F087FC0CB10120E4E7002068
:100D5000E2E72DE9F04106460F4615461C4606B966
:100D600014B90420BDE8F0812648007800F00100A5
:100D700008B10320F6E72348007800F0040008B12A
:100D80000220EFE72048007800F0040000B96D026F
:100D9000012C04D12946384600F0E4FC002400F080
:100DA0005AFC0CB10120DDE70020DBE72DE9F04122
:100DB00004460D46164614B10420BDE8F0811148E2
:100DC000007800F0010008B10320F6E7012715B113
:100DD000022D10D10AE0002208210C4802F063FE27
:100DE00000F023FCFF2800D1002706E04FF400703C
:100DF0003080002701E0042700BF00BF00F02BFC7B
:100E00003846DAE774020020B202002000080140F0
:100E100010B50449044806F0C0F80449087010BD34
:100E2000002070478D020020780200208C020020F4
:100E3000704700BFFEE700BFFEE700BFFEE700BF50
:100E4000FEE770477047704710B502F023F910BDF8
:100E500010B50C21054802F03FF8054802F096FE57
:100E600010BD10B5034801F097FB10BD6C030020C6
:100E7000AC0300202C03002008B500BF6648806941
:100E800040F00100644988610846806900F0010073
:100E9000009000BF00BF00BF0846C06940F080500E
:100EA000C8610846C06900F08050009000BF00BFD4
:100EB00008BD10B586B0044600200290039004904F
:100EC00005905649206888422FD100BF5248C0691A
:100ED00040F480405049C8610846C06900F4804031
:100EE000019000BF00BF00BF0846806940F00800C5
:100EF00088610846806900F00800019000BF00BFCB
:100F00004FF420400290022003900320059002A994
:100F1000434802F035FC4FF48040029000200390DB
:100F2000049002A93E4802F02BFC06B010BD38B573
:100F300004462068B0F1804F16D100BF3648C06922
:100F400040F001003449C8610846C06900F0010062
:100F5000009000BF00BF002211461C2003F054F88F
:100F60001C2003F08FF831E02E49206888422DD1F3
:100F700000BF2948C06940F002002749C8610846FF
:100F8000C06900F00200009000BF00BF264827495A
:100F90000860102048600021244881608021C160E1
:100FA000490001618900416100218161C16102F054
:100FB00095FD08B1FFF7B5F900BF1C49216308464C
:100FC000446200BF00BF2062446200BF38BD10B55C
:100FD00086B00446002002900390049005901149C9
:100FE0002068884215D100BF0B48806940F0080096
:100FF000094988610846806900F00800019000BF37
:1010000000BF022002900390059002A9044802F05C
:10101000B7FB06B010BD00000010024000380040D1
:10102000000C01400004004030000240AC030020EE
:10103000C0212A4A11600821284A283A1160411E1D
:10104000264A121D11600021244A121F1160092135
:10105000224A283A116000BF20491839096801F076
:1010600001010029F8D01D491839096821F0010152
:101070001A4A183A1160704744F65851174A1160DD
:101080000821164A283A116000EB80014900134AF2
:10109000121D11600021114A121F116009210F4A0F
:1010A000283A116000BF0D491839096801F00101A3
:1010B0000029F8D009491839096821F00101074AC7
:1010C000183A116070470648C06940F004000449AE
:1010D000C861082001492839086070472808004085
:1010E0000010024008B500208549086000BF85480F
:1010F000806940F00400834988610846806900F0F7
:101100000400009000BF00BF00BF0846806940F0A7
:10111000010088610846806900F00100009000BF6E
:1011200000BF072078490860002048600220C8609E
:101130008860764802F024FB0121744802F0ABFC81
:10114000734908607348006840F003007149086003
:1011500070480830006840F001006E4908310860AE
:10116000081D006840F00300091D0860062000F01B
:10117000B2F8072000F0AFF808BD10B5062000F067
:10118000B5F8072000F0B2F862481430006840F06B
:10119000010060491431086001215C4802F07BFCC9
:1011A0005D4908600421594802F075FC5B490860FC
:1011B0005948006850B90846006838B1544800687A
:1011C00020B14F480068401C4D49086052480068F3
:1011D00050B15248006838B94D48006820B94848B5
:1011E0000068401C464908604B48006850B94B48AD
:1011F000006838B94648006820B141480068401E80
:101200003F4908604448006850B14448006838B11C
:101210003F48006820B93A480068401E38490860D5
:101220000520FFF729FF00203B4908603B49086083
:101230000121364802F02FFC35490860062000F0F5
:101240004AF8072000F047F810BD10B5062000F05E
:101250004DF8072000F04AF82E481430006840F09E
:1012600002002C491431086011E00A20FFF704FF46
:101270002B480068401C2A49086008460068192865
:1012800005DB28480068401E2649086005E0022169
:101290001E4802F000FC0028E7D000BF204800688C
:1012A000192804DA1F480068401C1E490860002005
:1012B0001B49086000BF0221144802F0ECFB002823
:1012C000F9D00520FFF7D8FE062000F004F807202B
:1012D00000F001F810BD00F01F0201219140420909
:1012E000920002F1E022C2F80011704700F01F02E4
:1012F000012191400C4A430942F823107047000035
:1013000094020020001002404C26002000080140FA
:10131000A4020020000401409C020020A002002042
:10132000AC0200209802002080E100E010B5AD483A
:10133000C06840F48060AB49C8600220FFF778FEC7
:10134000A848C06820F48060A649C86010BD70B588
:1013500005460C46A348C06820F4FE50A149C86069
:101360000846C06805F0F00140EA81009D49C86068
:10137000012C08D10846C06840F40060C860042011
:10138000FFF756FE08E09748C06820F400609549D2
:10139000C8600420FFF74CFEFFF7C8FF0520FFF7E9
:1013A00047FE9048C06820F4FE508E49C860084649
:1013B000C06805F00F0140EA81108A49C860012C1D
:1013C00005D10846C06840F40060C86005E0854863
:1013D000C06820F400608349C860FFF7A7FF0520BC
:1013E000FFF74AFE7F48C06820F4FE507D49C86080
:1013F00070BD70B505460E460DB9002400E04024CE
:10140000344344F080000021FFF7A1FF70BD10B508
:1014100000210120FFF79BFF0320FFF72DFE10BDE9
:1014200000B585B000BF7048806940F010006E497B
:1014300088610846806900F01000009000BF00BF7E
:101440004FF4FE500190012002900320049001A966
:10145000644802F095F91420FFF70EFE6148C06859
:1014600020F4FE505F49C8600846C06820F4006060
:10147000C8600846C06820F48060C8600846C0683C
:1014800040F08000C860FFF751FF0520FFF7F4FD32
:101490005448C06820F4FE505249C8600846C068ED
:1014A00040F08000C860FFF741FF0A20FFF7C0FD51
:1014B0004C48C06820F4FE504A49C8600846C068DD
:1014C00040F40070C860FFF731FF0520FFF7D4FD3E
:1014D0004448C06820F4FE504249C86000210820FA
:1014E000FFF735FF00210620FFF731FF0021142010
:1014F000FFF72DFF00210C20FFF729FF05B000BDED
:1015000070B50546062000F064F8072000F061F889
:101510002C4604E020780121FFF719FF641C14B168
:1015200020780028F6D1062000F048F8072000F0C7
:1015300045F870BD3EB50446062000F04AF8072085
:1015400000F047F8224629A1684605F021FE6D46C5
:101550002846FFF7D5FF062000F030F8072000F0FE
:101560002DF83EBD2DE9F04104460D4616460620F5
:1015700000F02FF8072000F02CF8E9B2E0B2FFF7F6
:1015800038FF002704E001212020FFF7E0FE7F1C48
:10159000B742F8DB062000F011F8072000F00EF843
:1015A000BDE8F08170B504460D4629462046FFF798
:1015B00020FF01217E20FFF7CAFE70BD00F01F0250
:1015C000012191404209920002F1E022C2F800118B
:1015D000704700F01F0201219140054A430942F87B
:1015E00023107047001001400010024025640000E5
:1015F00080E100E0704701B582B0002001904FF417
:101600008050012301AA02A90090754800F0D3FA86
:1016100008B1FFF7EFFF9DF804000EBD10B5FF20E5
:10162000FFF7E9FF0446204610BD70B5002400BF57
:10163000FFF7F4FF0546601C84B2FF2D03D04FF680
:10164000FF708442F4DB4FF6FF70844201DB01201F
:1016500070BD2846FCE710B5FF20FFF7CCFF10BD9A
:1016600010B504462046FFF7C6FF10BD2DE9F04136
:1016700004460D4604F0800058B104F07F040021B8
:101680007720FFF7F3FF0646012E02DD3046BDE866
:10169000F08101220821534802F005FAFFF7BEFF4E
:1016A000002208214F4802F0FEF9FFF7B7FF20465D
:1016B000FFF7D6FF280EFFF7D3FFC5F30740FFF76C
:1016C000CFFFC5F30720FFF7CBFFE8B2FFF7C8FF56
:1016D0000127402C00D19527482C00D18727384678
:1016E000FFF7BEFF0A2700BFFFF798FF064606F088
:1016F000800018B1781EC0B2071EF5D13046C6E78B
:101700002DE9F04105460F4639465120FFF7AEFF5F
:10171000064616B10520BDE8F081FFF79CFF0024C6
:1017200000BFFFF77BFF0646601C84B2FE2E03D08D
:101730004FF6FF708442F4DB4FF6FF70844201DB0A
:101740000520E8E7002404E0FFF768FF2855601C47
:1017500084B2B4F5007FF7DBFFF77DFFFFF77BFF77
:101760000020D8E72DE9F04106460F4639465820BB
:10177000FFF77CFF054615B10620BDE8F081FFF7B5
:101780006AFFFE20FFF76CFF002404E0305DFFF7E6
:1017900067FF601C84B2B4F5007FF7DBFFF75BFFE7
:1017A000FFF759FFFFF73AFF054605F0050005284A
:1017B00001D00620E1E7002400BFFFF72FFF054618
:1017C000601C84B2FF2D03D04FF6FF708442F4DB1F
:1017D0004FF6FF70844201DB0620CEE70020CCE705
:1017E000D40200200008014000200449088000BF06
:1017F000024800880228FBDB70470000B00200208E
:10180000F8B50020494908704948C7693021C161CD
:1018100000F0E8FD01220821464802F044F90024C6
:1018200003E0FFF718FF601CC4B20A2CF9DB404844
:10183000C76100F0D7FD002208213E4802F033F9CD
:1018400000214020FFF712FF01286AD1FFF703FFB4
:101850004FF4D5714820FFF709FF01283BD1002440
:1018600005E0FFF7DBFE0DF80400601CC4B2042C99
:10187000F7DB9DF80200012855D19DF80300AA2846
:1018800051D142F6E06501E0681E05B235B14FF076
:101890008041E920FFF7EAFE0028F5D1002D42D073
:1018A00000217A20FFF7E2FE00283CD1002405E069
:1018B000FFF7B4FE0DF80400601CC4B2042CF7DB83
:1018C0009DF8000000F0400008B10C2000E004206A
:1018D0001649087027E00021E920FFF7C7FE01281C
:1018E00004DC022011490870E92603E001200F49B9
:1018F0000870412646F2A81501E0681E05B22DB118
:1019000000213046FFF7B2FE0028F6D12DB14FF48A
:1019100000715020FFF7AAFE28B10020034908708B
:1019200001E00120F8BD0020FCE70000B202002029
:10193000D402002000080140302004E01D21464A66
:1019400022F81010401CB0F5DE6FF7DB704778B559
:10195000002400947AE0BDF80040C4F1070501249A
:10196000AC4004400CB1012400E00024012C0DD156
:101970003A2503EB4304302606EBC404BDF80060AF
:1019800034440834344E26F814500CE01D2503EB83
:101990004304302606EBC404BDF800603444083428
:1019A0002D4E26F81450BDF80040C4F1070501245F
:1019B000AC400C400CB1012400E00024012C0CD1FF
:1019C0003A2503EB4304302606EBC404BDF800605F
:1019D0003444214E26F814500BE01D2503EB43043C
:1019E000302606EBC404BDF8006034441A4E26F8D5
:1019F0001450BDF80040C4F107050124AC40144068
:101A00000CB1012400E00024012C0DD13A2503EB98
:101A10004304302606EBC404BDF80060344410349F
:101A20000D4E26F814500CE01D2503EB4304302620
:101A300006EBC404BDF8006034441034064E26F8AA
:101A40001450BDF80040641CA4B20094BDF80040DE
:101A5000082C80DB78BD00005C260020704710B5A4
:101A600004460CB9012010BD0021A16294F8510078
:101A700028B9002084F850002046FFF71AFA022007
:101A800084F851002068006820F040002168086058
:101A9000D4E901010843E168084321690843616909
:101AA0000843218B01F400710843E1690843216A6E
:101AB0000843A16A0843216808600421A06901EA7B
:101AC0001040616A0843216848602068C06920F4BA
:101AD00000602168C86100206065012084F8510021
:101AE0000020C0E72DE9F04104460E4617461D468A
:101AF000DDF818803FE0681CE0B32DB101F0D2FAA8
:101B0000A0EB0800A84236D32068406820F0E0002F
:101B1000216848606068B0F5827F0DD1A068B0F59B
:101B2000004F03D0A068B0F5806F05D12068006831
:101B300020F0400021680860A06AB0F5005F0ED177
:101B400000BF206800684DF6FF71084021680860FA
:101B50002068006840F400502168086000BF012040
:101B600084F8510000BF002084F8500000BF03201B
:101B7000BDE8F081FFE7206880683040B04201D1C5
:101B8000012000E00020B842B5D10020F0E7F8B510
:101B900004460D4616462B4600228021204600961C
:101BA000FFF7A0FF28B1606D40F0200060650320C2
:101BB000F8BD0020FCE72DE9FE4F04460D46164611
:101BC0001F46DDF830804FF0000A00200290814669
:101BD0004FF0010B019000BF94F85000012802D192
:101BE0000220BDE8FE8F012084F8500000BF01F004
:101BF00059FA814694F851A060680290BAF1010F39
:101C00000BD00298B0F5827F04D1A06810B9BAF168
:101C1000040F02D002200190D2E00DB106B117B935
:101C200001200190CCE094F85100012802D1052058
:101C300084F8510000206065A663E787A7872563C5
:101C4000E786A786206460642068006800F0400092
:101C5000402805D02068006840F0400021680860F6
:101C6000E068B0F5006F43D1606810B1E08E0128E4
:101C700006D128882168C860AD1CE08E401EE08631
:101C80002FE0BBF1000F10D0E08E70B120688068AB
:101C900000F00200022808D128882168C860AD1C25
:101CA000E08E401EE0864FF0000BE08F68B12068A8
:101CB000806800F0010040B12068C0683080B61C28
:101CC000E08F401EE0874FF0010B08F1010040B1AA
:101CD00001F0E8F9A0EB0900404502D30320019090
:101CE0006EE0E08E0028CCD1E08F0028C9D142E020
:101CF000606810B1E08E012806D128782168087349
:101D00006D1CE08E401EE0862FE0BBF1000F10D06E
:101D1000E08E70B12068806800F00200022808D1CF
:101D200015F8010B21680873E08E401EE0864FF025
:101D3000000BE08F68B12068806800F0010040B1BE
:101D40002068C06806F8010BE08F401EE0874FF066
:101D5000010B08F1010040B101F0A4F9A0EB09006A
:101D6000404502D3032001902AE0E08E0028CCD128
:101D7000E08F0028C9D14346012202212046CDF838
:101D80000090FFF7AFFE10B10320019018E04A4623
:101D900041462046FFF7FBFE20B1012001902020A4
:101DA00060650DE0A06850B900BF00200090206879
:101DB000C068009020688068009000BF00BF00BF2E
:101DC000012084F8510000BF002084F8500000BFBB
:101DD000019806E77CB5044600BFFE48006818215C
:101DE000B0FBF1F04FF47A71B0FBF1F0642148439D
:101DF000019001F057F9054600BF0198411E01917D
:101E000020B9606D40F02000606505E020688068C2
:101E100000F002000028F0D000BF2068406820F0E9
:101E2000A000216848602A4664212046FFF7AFFEE3
:101E300018B1606D40F020006065A06850B900BF27
:101E4000002000902068C0680090206880680090A2
:101E500000BF00BF012084F85100606D18B120461A
:101E600000F0B9FA02E0204600F0B4FA7CBD10B5EB
:101E70000446216B481C2063087821680873E08EB3
:101E8000401EE086E08E10B92046FFF7A3FF10BD8C
:101E900010B50446206B00882168C860206B801C48
:101EA0002063E08E401EE086E08E10B92046FFF7EA
:101EB00091FF10BD38B504462068406820F06000EE
:101EC000216848606068B0F5827F0DD1A068B0F5E8
:101ED000004F03D0A068B0F5806F05D1206800687E
:101EE00020F0400021680860A06850B900BF0020C1
:101EF00000902068C068009020688068009000BF53
:101F000000BF012084F85100606D18B9204600F030
:101F100063FA02E0204600F05EFA38BD10B50446D0
:101F20002068017BA26B501CA0631170E08F401EE3
:101F3000E087E08F10B92046FFF7BCFF10BD10B559
:101F400004462068C068A16B0880A06B801CA06359
:101F5000E08F401EE087E08F10B92046FFF7AAFF10
:101F600010BD7CB5044600BF9A4800681821B0FB3C
:101F7000F1F04FF47A71B0FBF1F064214843019025
:101F800001F090F805462068406820F020002168A4
:101F9000486000BF0198411E019120B9606D40F07A
:101FA0002000606505E02068806800F002000028DD
:101FB000F0D000BF2A4664212046FFF7E8FD18B1A3
:101FC000606D40F020006065A06850B900BF00203F
:101FD00000902068C068009020688068009000BF72
:101FE00000BF606D88B994F85100042806D1012023
:101FF00084F85100204600F0EFF90CE0012084F84D
:102000005100204600F0E9F905E0012084F8510074
:10201000204600F0E0F97CBD10B50446216B481C59
:102020002063087821680873E08E401EE086E08E09
:1020300050B92068406820F0800021684860E08F37
:1020400010B92046FFF78DFF10BD10B5044620687B
:10205000017BA26B501CA0631170E08F401EE087D3
:10206000E08F50B92068406820F060002168486027
:10207000E08E10B92046FFF774FF10BD10B504467E
:10208000206B00882168C860206B801C2063E08E74
:10209000401EE086E08E50B92068406820F0800045
:1020A00021684860E08F10B92046FFF75AFF10BD45
:1020B00010B504462068C068A16B0880A06B801C26
:1020C000A063E08F401EE087E08F50B92068406831
:1020D00020F0400021684860E08E10B92046FFF7EC
:1020E00040FF10BD70B505466C6A2068406820F05E
:1020F000030021684860606D40F0100060650120B9
:1021000084F85100204600F066F970BDF8B5054628
:102110006C6A002600F0C6FF06462868006800F0DA
:102120002000202827D02068406820F00200216885
:102130004860324664212046FFF729FD18B1606DE2
:1021400040F020006065A06850B900BF00200090FA
:102150002068C068009020688068009000BF00BFC1
:102160000020E086012084F85100606D18B12046FF
:1021700000F031F9F8BD204600F02CF900BFF9E776
:1021800070B50446656A284600F028F970BD70B540
:1021900005466C6A2868006800F02000202825D0D9
:1021A0002068406820F00300216848606068B0F54E
:1021B000827F0DD1A068B0F5004F03D0A068B0F5C4
:1021C000806F05D12068006820F040002168086019
:1021D000002001E0C0020020E087012084F85100C7
:1021E000606D18B1204600F0F6F870BD204600F092
:1021F000F3F800BFF9E770B50446656A284600F0B9
:10220000EEF870BD70B505466C6A002600F04AFF16
:1022100006462868006800F0200020281BD03246BF
:1022200064212046FFF7B3FC18B1606D40F0200038
:1022300060652068406820F0030021684860002045
:10224000E086E087012084F85100606D18B12046D7
:1022500000F0C1F870BD204600F0BFF800BFF9E7FC
:1022600070B50446656A284600F0BAF870BD0CB532
:1022700000210191564909681822B1FBF2F14FF48F
:102280007A72B1FBF2F164225143009100BF0099D0
:102290004A1E009221B9416D41F02001416505E0DF
:1022A0000168896801F002010029F0D000BF0168CF
:1022B000096821F04001026811600168496821F055
:1022C000E001026851600168C968019100BF0CBD5E
:1022D0000168496821F0E0010268516001680968FD
:1022E00021F0400102681160704738B505466C6AFC
:1022F0002068006820F04000216808600020E16C40
:1023000048632068406820F0010021684860A06CA4
:1023100018B1A06C406B00B138BD0020E087E086AA
:10232000606500BF00902068C068009020688068E9
:10233000009000BF00BF012084F85100204600F04B
:1023400050F800BFE8E738B5054621480068182175
:10235000B0FBF1F04FF47A71B0FBF1F06421484327
:1023600000906C6A0020A16C48632068406820F0EF
:1023700002002168486000BF0098411E009120B90A
:10238000606D40F02000606505E02068806800F026
:1023900002000028F0D000BFE06C18B1E06C406B88
:1023A00000B138BD0020E087E0866065012084F838
:1023B0005100204600F015F800BFF2E770B5054661
:1023C0006C6A0020E087E086204600F004F870BDCB
:1023D000C0020020704770477047704770477047D1
:1023E0007047704710B504460CB9012010BD00219C
:1023F000A16294F8510010B92046FEF75AFD022060
:1024000084F851002068006820F0400021680860CE
:10241000D4E901010843E16808432169084361697F
:102420000843218B01F400710843E1690843216AE4
:102430000843A16A0843216808600421A06901EAF1
:102440001040616A0843216848602168E06A0861B9
:102450002068C06920F400602168C86100206065C0
:10246000012084F851000020C0E70000002202682B
:10247000FE4B98420ED0FE4B98420BD0B0F1804FED
:1024800008D0FC4B984205D0FB4B984202D0FB4B46
:10249000984203D122F070024B681A43F34B9842E2
:1024A0000ED0F34B98420BD0B0F1804F08D0F14BD7
:1024B000984205D0F04B984202D0F04B984203D19D
:1024C00022F44072CB681A4322F080024B691A430F
:1024D00002608B68C3620B688362E44B984202D04F
:1024E000E34B984201D10B690363012343617047B9
:1024F000704710B504460CB9012010BD94F83D009A
:1025000028B9002084F83C002046FEF710FD022088
:1025100084F83D00211D2068FFF7A8FF012084F802
:102520003D000020E9E701460868C06840F001006E
:102530000A68D0600868006840F001000A6810600E
:1025400000207047704770B50446656A012085F821
:102550003D002846FEF7ABFB70BD7047704710B5D5
:1025600004460CB9012010BD94F83D0028B90020A4
:1025700084F83C002046FFF7F1FF022084F83D007C
:10258000211D2068FFF772FF012084F83D00002024
:10259000E9E770477047704710B504462068006946
:1025A000C0F34000D8B12068C068C0F34000B0B1AB
:1025B0006FF002002168086101202077206880699F
:1025C00000F0030018B12046FFF7E3FF05E02046C6
:1025D000FFF7E1FF2046FFF7C0FF002020772068CB
:1025E0000069C0F38000D8B12068C068C0F38000E3
:1025F000B0B16FF0040021680861022020772068E4
:10260000806900F4407018B12046FFF7C2FF05E072
:102610002046FFF7C0FF2046FFF79FFF00202077EE
:1026200020680069C0F3C000D8B12068C068C0F35A
:10263000C000B0B16FF00800216808610420207765
:102640002068C06900F0030018B12046FFF7A1FF21
:1026500005E02046FFF79FFF2046FFF77EFF0020A2
:10266000207720680069C0F30010D8B12068C068E6
:10267000C0F30010B0B16FF01000216808610820AD
:1026800020772068C06900F4407018B12046FFF739
:1026900080FF05E02046FFF77EFF2046FFF75DFF45
:1026A000002020772068006900F0010058B1206800
:1026B000C06800F0010030B16FF0010021680861CE
:1026C0002046FEF7F4FA20680069C0F3C01058B144
:1026D0002068C068C0F3C01030B16FF0800021687E
:1026E0000861204600F0A2FC20680069C0F3801059
:1026F00058B12068C068C0F3801030B16FF040005E
:10270000216808612046FFF745FF20680069C0F393
:10271000401058B12068C068C0F3401030B16FF06D
:10272000200021680861204600F04EFC10BD30B545
:10273000002200230024056A25F480550562036AFF
:102740004468C26922F4E04222F440720D6842EA11
:10275000052223F400538D6843EA0533434DA84214
:1027600002D0434DA84204D124F480444D6944EA88
:1027700085144460C2614D680564036230BD30B5A4
:10278000002400220023056A25F480750562026A90
:102790004368C46924F0700424F003040D682C43DA
:1027A00022F400728D6842EA0522304DA84200D121
:1027B00003E02F4DA84207D100BF22F40062CD688C
:1027C00042EA052222F48062284DA84202D0284D18
:1027D000A84209D123F4805323F400534D6943EAFE
:1027E00005138D6943EA05134360C4614D68C563F1
:1027F000026230BD30B5002400220023056A25F0B6
:1028000010050562026A4368846924F4E04424F4F4
:1028100040740D6844EA052422F020028D6842EAE3
:102820000512124DA84200D103E0114DA84207D174
:1028300000BF22F08002CD6842EA051222F0400279
:102840000A4DA84202D00A4DA84209D123F4806360
:1028500023F400634D6943EA85038D6943EA8503E8
:10286000436084614D688563026230BD002C014085
:10287000003401400004004000080040000C00400B
:1028800030B5002400220023056A25F00105056209
:10289000026A4368846924F0700424F003040D681C
:1028A0002C4322F002028D682A43FE4DA84200D13B
:1028B00003E0FD4DA84206D100BF22F00802CD681A
:1028C0002A4322F00402F74DA84202D0F64DA84256
:1028D00007D123F4807323F400734D692B438D6972
:1028E0002B43436084614D684563026230BD70B51F
:1028F0000C46154600210022066A26F48056066220
:10290000C169026A21F4407141EA052121F4704154
:102910004FF4704606EA0336314322F400524FF476
:10292000005606EA04363243C161026270BD70B5DA
:102930000C46154600210022066A26F480760662BF
:10294000C169026A21F00301294321F0F001F02658
:1029500006EA0316314322F400724FF4007606EAC9
:1029600004263243C161026270BD70B50C46154643
:1029700000210022066A26F0100606628169026ABA
:1029800021F4407141EA052121F470414FF4704671
:1029900006EA0336314322F0A002A02606EA041616
:1029A00032438161026270BD70B504460D46164621
:1029B00000BF94F83C00012801D1022070BD012025
:1029C00084F83C0000BF022084F83D0036B1042E9C
:1029D0001BD0082E31D00C2E5ED145E02946206850
:1029E000FFF74EFF2068806940F008002168886189
:1029F0002068806920F0040021688861206880696F
:102A0000296908432168886147E029462068FFF763
:102A1000F1FE2068806940F40060216888612068C8
:102A2000806920F480602168886120688069296954
:102A300040EA0120216888612FE029462068FFF7DD
:102A40009EFE2068C06940F008002168C8612068C7
:102A5000C06920F004002168C8612068C069296944
:102A600008432168C86118E029462068FFF75FFE27
:102A70002068C06940F400602168C8612068C069AE
:102A800020F480602168C8612068C069296940EA33
:102A900001202168C86100E000BF00BF012084F868
:102AA0003D0000BF002084F83C0000BF00BF85E768
:102AB00070B50446656A012085F83D002846FFF799
:102AC00069FD70BD30B50C460021816821F47F415D
:102AD00042EA032525432943816030BD0A4600218F
:102AE000816821F0700142F007031943816070474B
:102AF00030B50B46144600210022026A056A25F013
:102B000001050562816921F0F00141EA041122F01A
:102B10000A021A438161026230BD30B50B46144689
:102B200000210022056A25F0100505628169026A0C
:102B300021F4704141EA043122F0A00242EA03127A
:102B40008161026230BD2DE9F04104460D46002648
:102B500000BF94F83C00012802D10220BDE8F081BA
:102B6000012084F83C0000BF022084F83D0020686A
:102B7000866826F0770626F47F46206886602868F7
:102B800050283BD00CDC202860D004DC002853D037
:102B9000102865D155E030285DD0402860D141E053
:102BA000602835D070280DD0B0F5805F03D0B0F527
:102BB000005F55D115E02068806820F0070021688B
:102BC00088604EE0D5E902136A682068FFF77AFF53
:102BD0002068866826F0770646F0770620688660CB
:102BE0003FE0D5E902136A682068FFF76BFF2068B1
:102BF000806840F480402168886032E0EA68696853
:102C00002068FFF775FF50212068FFF767FF28E075
:102C1000EA6869682068FFF780FF60212068FFF795
:102C20005DFF1EE0EA6869682068FFF761FF4021E8
:102C30002068FFF753FF14E000212068FFF74EFFE4
:102C40000FE010212068FFF749FF0AE020212068EB
:102C5000FFF744FF05E030212068FFF73FFF00E069
:102C600000BF00BF012084F83D0000BF002084F8B1
:102C70003C0000BF00BF71E72DE9F04104460D465E
:102C800000260027B0462068866826F0700668682F
:102C9000064326F0070628680643206886606868B1
:102CA00004E00000002C01400034014000F00F015E
:102CB000002935D10011082832D2DFE800F02D2E8E
:102CC0002F300B212704D5E90313AA682068FFF7EA
:102CD000F9FE26E02068D0F820802068006A20F005
:102CE0000100216808622068876927F0F0072869D9
:102CF00047EA0017206887612068C0F8208010E04C
:102D00002A69A9682068FFF7F3FE0AE02A69A96822
:102D10002068FFF702FF04E003E002E001E000E0CA
:102D200000BF00BFBDE8F081704770B50446656A1A
:102D3000012085F83D002846FFF7F6FF70BD30B54D
:102D40000023012404FA01F3046A9C430462046A28
:102D500002FA01F52C43046230BD70B505466C6A79
:102D6000012084F83D00606AA84202D1012020774A
:102D700010E0A06AA84202D1022020770AE0E06AAF
:102D8000A84202D10420207704E0206BA84201D1A0
:102D9000082020772046FFF7E0FB0020207770BD59
:102DA0002DE9F04104460E4615461F4694F83D00B5
:102DB000022801D1BDE8F08194F83D00012805D139
:102DC0000DB907B1F6E7022084F83D0036B1042EB4
:102DD00019D0082E2CD00C2E54D13EE03A49606A0E
:102DE00081623A49606A0163216801F134023B461D
:102DF0002946606A01F098F82068C06840F40070C5
:102E00002168C8603FE03049A06A81622F49A06A0A
:102E10000163216801F138023B462946A06A01F0AE
:102E200083F82068C06840F480602168C8602AE0A8
:102E30002549E06A81622549E06A0163216801F160
:102E40003C023B462946E06A01F06EF82068C06803
:102E500040F400602168C86015E01B49206B816266
:102E60001A49206B0163216801F140023B46294663
:102E7000206B01F059F82068C06840F48050216848
:102E8000C86000E000BF00BF012231462068FFF7A4
:102E900056FF0F492068884203D00E4920688842B7
:102EA00001D1012000E0002028B12068406C40F4EE
:102EB0000040216848642068006840F001002168F3
:102EC0000860002076E700005B2D00082B2D00082D
:102ED000002C01400034014030B504460D4635B1A8
:102EE000042D0BD0082D10D00C2D1CD114E020681F
:102EF000C06820F400702168C86015E02068C068D0
:102F000020F480602168C8600EE02068C06820F46A
:102F100000602168C86007E02068C06820F4805025
:102F20002168C86000E000BF00BF00222946206879
:102F3000FFF705FF1B492068884203D01A49206823
:102F4000884201D1012000E0002090B100BF20683C
:102F5000006A41F21111084050B92068006A8910D6
:102F6000084028B92068406C20F40040216848647B
:102F700000BF00BF2068006A41F21111084050B93B
:102F80002068006A8910084028B92068006820F08D
:102F900001002168086000BF012084F83D00002086
:102FA00030BD0000002C01400034014030B500234A
:102FB000042404FA01F3046A9C430462046A02FADA
:102FC00001F52C43046230BD7047024600BF92F801
:102FD0003C00012801D102207047012082F83C000A
:102FE00000BF022082F83D001068406820F07000A9
:102FF00013685860106840680B681843136858607D
:103000001068806820F080001368986010688068FD
:103010004B68184313689860012082F83D0000BF98
:10302000002082F83C0000BF00BFD5E770470000D9
:10303000704770B504461D4800784FF47A71B1FBB3
:10304000F0F01B490968B1FBF0F5284601F027F8BC
:1030500008B1012070BD102C07D200222146501E5D
:1030600000F0D2FF1348046001E00120F2E70020E5
:10307000F0E710B51048006840F010000E490860F5
:10308000032000F0AFFF0020FFF7D3FFFDF7F4FEB1
:10309000002010BD09480068044909780844074920
:1030A000086070470548006870470000BC020020B7
:1030B000C0020020B802002000200240B40200201C
:1030C00008B5FE490968C9084FF47A72B1FBF2F1FC
:1030D0004143009100BF00BF00994A1E00920029A1
:1030E000F9D108BDF8B504460025207800F00100AC
:1030F000002878D0F248406800F00C0004280CD07A
:10310000EF48406800F00C00082811D1EC484068F6
:1031100000F48030B0F5803F0AD1E948006800F43F
:10312000003000285FD0606800285CD10120F8BD25
:1031300000BF6068B0F5803F06D1E148006840F408
:103140008030DF49086028E0606858B9DC480068D2
:1031500020F48030DA4908600846006820F48020B6
:1031600008601AE06068B0F5A02F0BD1D448006861
:1031700040F48020D24908600846006840F480305E
:1031800008600AE0CE48006820F48030CC4908602E
:103190000846006820F48020086000BF606888B19D
:1031A000FFF780FF054606E0FFF77CFF401B642821
:1031B00001D90320BBE7C248006800F400300028B2
:1031C000F2D010E0FFF76EFF054606E0FFF76AFF5A
:1031D000401B642801D90320A9E7B948006800F41E
:1031E00000300028F2D1207800F00200022857D1E8
:1031F000B348406800F00C0050B1B148406800F09E
:103200000C00082818D1AE48406800F4803098B906
:10321000AB48006800F0020020B12069012801D00D
:10322000012084E7A648006820F0F800616940EAC0
:10323000C100A349086033E02069E8B10120A14939
:103240000860FFF72FFF054606E0FFF72BFF401B46
:10325000022801D903206AE79948006800F00200BB
:103260000028F2D09648006820F0F800616940EA32
:10327000C1009349086013E0002092490860FFF7FD
:1032800011FF054606E0FFF70DFF401B022801D99C
:1032900003204CE78A48006800F002000028F2D1C1
:1032A000207800F0080008282DD1A069B8B10120CD
:1032B00085490860FFF7F6FE054606E0FFF7F2FED7
:1032C000401B022801D9032031E77D48406A00F005
:1032D00002000028F2D00120FFF7F2FE13E00020E8
:1032E00079490860FFF7DEFE054606E0FFF7DAFEE3
:1032F000401B022801D9032019E77148406A00F0F9
:1033000002000028F2D1207800F00400042873D1D4
:1033100000266B48C06900F0805070B900BF684853
:10332000C06940F080506649C8610846C06900F035
:103330008050009000BF00BF01266448006800F480
:103340008070B0B96148006840F480705F490860DF
:10335000FFF7A8FE054606E0FFF7A4FE401B642821
:1033600001D90320E3E65948006800F48070002882
:10337000F2D000BFE068012806D15148006A40F051
:1033800001004F49086227E0E06858B94C48006ADC
:1033900020F001004A4908620846006A20F0040053
:1033A000086219E0E06805280BD14548006A40F042
:1033B0000400434908620846006A40F001000862C0
:1033C0000AE03F48006A20F001003D4908620846D3
:1033D000006A20F00400086200BFE068A0B1FFF7B7
:1033E00061FE054609E0FFF75DFE401B41F28831B2
:1033F000884202D903209AE622E03148006A00F0B0
:1034000002000028EFD012E0FFF74CFE054608E06E
:10341000FFF748FE401B41F28831884201D9032062
:1034200085E62748006A00F002000028F0D1012E4E
:1034300005D12348C06920F080502149C86100BFF0
:10344000E069C8B31E48406800F00C00082862D04C
:10345000E06902284AD100201A490866FFF722FED7
:10346000054606E0FFF71EFE401B022801D9032097
:103470005DE61348006800F000700028F2D1206A71
:10348000B0F5803F07D10E48406820F40030A168B5
:1034900008430B494860D4E90801084308494968D2
:1034A00021F4741108430649486001200549086663
:1034B000FFF7F8FD054612E02FE00000C0020020F3
:1034C000001002400000424280044242007000406E
:1034D000FFF7E8FD401B022801D9032027E69C489E
:1034E000006800F000700028F2D016E00020994932
:1034F0000866FFF7D7FD054606E0FFF7D3FD401B42
:10350000022801D9032012E69148006800F00070FB
:103510000028F2D101E0012009E6002007E6F0B51D
:1035200085B00FF2342C9CE8E01001A8A0E8E01070
:103530008DA52D6800950021002200230024002085
:10354000834D696801F00C05F5B1042D02D0082DFA
:1035500019D101E0854819E001ADC1F38346AC5DA6
:1035600001F4803555B17A4D6D68C5F340451DF8BD
:1035700005207E4D6543B5FBF2F302E07C4D04FB74
:1035800005F3184602E000BF784800BF00BF05B051
:10359000F0BD70B504460D4600267648006800F080
:1035A0000700A8420ED27348006820F007002843A5
:1035B000704908600846006800F00700A84201D082
:1035C000012070BD207800F0020002281DD1207873
:1035D00000F00400042805D15D48406840F4E06034
:1035E0005B494860207800F00800082805D1584859
:1035F000406840F46050564948605548406820F0A3
:10360000F000A168084352494860207800F00100AA
:1036100000285DD06068012806D14D48006800F49C
:10362000003090B90120CCE76068022806D14848F4
:10363000006800F0007040B90120C2E7444800680B
:1036400000F0020008B90120BBE74148406820F0C3
:103650000300616808433E494860FFF723FD0646C2
:103660006068012810D108E0FFF71CFD801B41F2C3
:103670008831884201D90320A3E73548406800F02B
:103680000C000428F0D123E06068022810D108E083
:10369000FFF708FD801B41F28831884201D90320E1
:1036A0008FE72B48406800F00C000828F0D10FE0AD
:1036B00008E0FFF7F7FC801B41F28831884201D90E
:1036C00003207EE72248406800F00C000028F0D17B
:1036D0002848006800F00700A8420ED92548006875
:1036E00020F007002843234908600846006800F0DE
:1036F0000700A84201D0012063E7207800F0040011
:10370000042807D11248406820F4E060E1680843CB
:103710000F494860207800F00800082808D10C48BC
:10372000406820F46050216940EAC10008494860BF
:10373000FFF7F5FE06494968C1F303110E4A515CD3
:10374000C8400E4908600020FFF773FC002038E7EE
:103750000010024000004242020304050607080967
:103760000A0B0C0D0E0F10100102000000127A005F
:1037700000093D0000200240F4730008C002002050
:103780002DE9F84702460024002000258446002742
:1037900000237BE14FF0010808FA03F4D1F8008020
:1037A00008EA0400A0427DD1DFF808A3D1F8048024
:1037B000A8EB0A09D0453AD014DCB8F1030F50D079
:1037C00009DCB8F1000F31D0B8F1010F1CD0B8F10D
:1037D000020F49D120E0B8F1110F18D0B8F1120F43
:1037E00042D11EE0B9F5881F25D006DCB9F5803F2F
:1037F00020D0B9F5801F37D11AE0B9F5001F18D0D5
:10380000B9F5041F30D117E0D1F80CC02DE0D1F884
:103810000C8008F1040C28E0D1F80C8008F1080CA9
:1038200023E0D1F80C8008F10C0C1EE000BF00BFB3
:1038300000BF00BF00BF00BFD1F80880B8F1000F83
:1038400002D14FF0040C0BE0D1F80880B8F1010F61
:1038500003D14FF0080C146102E04FF0080C5461E2
:1038600003E04FF0000C00E000BF00BFFF2801D8CC
:10387000904601E002F104084646FF2802D84FEACC
:10388000830803E0A3F108084FEA88084746D6F802
:1038900000804FF00F0909FA07F928EA09080CFA25
:1038A00007F900E07AE048EA0908C6F80080D1F894
:1038B000048008F08058B8F1805F6FD100BFDFF856
:1038C000F881D8F8188048F00108DFF8EC91C9F8C1
:1038D0001880C846D8F8188008F00108CDF8008094
:1038E00000BF00BF4FEAB9384FEA930958F8295092
:1038F0004FEA83784FEA18794FF00F0808FA09F871
:1039000025EA0805DFF8B481424502D14FF00008EE
:1039100024E0DFF8AC81424502D14FF001081DE000
:10392000DFF8A081424502D14FF0020816E0DFF82F
:103930009881424502D14FF003080FE0DFF88C81F7
:10394000424502D14FF0040808E0DFF88481424587
:1039500002D14FF0050801E04FF006084FEA8379E5
:103960004FEA197908FA09F848EA0505DFF8648191
:103970004FEA930948F82950D1F8048008F48038B8
:10398000B8F5803F0BD1DFF85081D8F8008048EAC5
:103990000008DFF84491C9F800800AE075E0DFF81C
:1039A0003881D8F8008028EA0008DFF82C91C9F89F
:1039B0000080D1F8048008F40038B8F5003F0ED13B
:1039C000DFF8148108F10408D8F8008048EA0008FC
:1039D000DFF8049109F10409C9F800800DE0DFF86F
:1039E000F88008F10408D8F8008028EA0008DFF819
:1039F000E89009F10409C9F80080D1F8048008F4BE
:103A00008018B8F5801F0ED1DFF8CC8008F10808C7
:103A1000D8F8008048EA0008DFF8BC9009F10809EE
:103A2000C9F800800DE0DFF8B08008F10808D8F888
:103A3000008028EA0008DFF8A09009F10809C9F819
:103A40000080D1F8048008F40018B8F5001F0ED1EA
:103A5000DFF8848008F10C08D8F8008048EA0008F4
:103A6000DFF8749009F10C09C9F800800DE0DFF867
:103A7000688008F10C08D8F8008028EA0008DFF810
:103A8000589009F10C09C9F800805B1C102BFFF459
:103A900081AEBDE8F887024693680B400BB1012068
:103AA00000E0002070470AB1016101E00B040361EE
:103AB0007047000000001110001002400008014093
:103AC000000C0140001001400014014000180140AA
:103AD000001C014008000140000401400146002292
:103AE00009B901207047FC4B086898420BD2FB4B88
:103AF0000868C01A1423B0FBF3F080000864F7488C
:103B00000838C8630AE0F44B0868C01A1423B0FBF5
:103B1000F3F080000864F0480838C863022081F898
:103B200021000868026843F6F0708243D1E901037E
:103B30001843CB6818430B6918434B6918438B69CA
:103B40001843CB6918430243086802600020886369
:103B5000012081F82100002081F8200000BFC1E78A
:103B600030B590F840500124AC40C56B6C600468DF
:103B700063604468102C04D10468A2600468E160AA
:103B800003E00468A1600468E26030BD70B50446DB
:103B9000E06B05682068066894F8401004208840AF
:103BA0002840002875D006F004000028FAD02068CC
:103BB000006800F0200028B92068006820F00400A8
:103BC00021680860C54978312068884254D9C349C2
:103BD0002068884201D104204AE0C049143120689D
:103BE000884201D1402043E0BC4928312068884206
:103BF00001D100153CE0B9493C312068884202D12E
:103C00004FF4804034E0B54950312068884202D1F9
:103C10004FF480202CE0B14964312068884202D101
:103C20004FF4800024E0AD4978312068884201D10A
:103C3000C0041DE0A8492068884201D1042017E093
:103C4000A54914312068884201D1402010E0A249E2
:103C500028312068884201D1001509E09E493C3195
:103C60002068884202D14FF4804001E04FF4802068
:103C70009949091F086054E098492068884201D199
:103C800004204BE0954914312068884202D140203D
:103C900044E04DE0914928312068884201D1001567
:103CA0003CE08E493C312068884202D14FF480408C
:103CB00034E08A4950312068884202D14FF4802094
:103CC0002CE0864964312068884202D14FF480009C
:103CD00024E0824978312068884201D1C0041DE087
:103CE0007D492068884201D1042017E07A491431C7
:103CF0002068884201D1402010E0774928312068AF
:103D0000884201D1001509E073493C31206888429E
:103D100002D14FF4804001E04FF480206F49083910
:103D20004860E06A002802D02046E16A8847FAE04D
:103D300094F84010022088402840002871D006F0F6
:103D400002000028FAD02068006800F0200040B986
:103D50002068006820F00A0021680860012084F8CB
:103D600021005E4978312068884254D95B49206837
:103D7000884201D102204AE0584914312068884223
:103D800001D1202043E0554928312068884201D1E3
:103D900040153CE051493C312068884202D14FF443
:103DA000005034E04D4950312068884202D14FF430
:103DB00000302CE0494964312068884202D14FF438
:103DC000001024E0454978312068884201D1800400
:103DD0001DE041492068884201D1022017E03E4998
:103DE00014312068884201D1202010E03A4928315E
:103DF0002068884201D1401509E037493C312068EC
:103E0000884202D14FF4005001E04FF400303249B3
:103E1000091F086054E031492068884202D102201D
:103E20004BE05DE02D4914312068884201D120200B
:103E300043E02A4928312068884201D140153CE0FE
:103E400026493C312068884202D14FF4005034E0CA
:103E5000224950312068884202D14FF400302CE0D2
:103E60001E4964312068884202D14FF4001024E0DA
:103E70001A4978312068884201D180041DE0164932
:103E80002068884201D1022017E0134914312068CC
:103E9000884201D1202010E00F4928312068884253
:103EA00001D1401509E00C493C312068884202D11B
:103EB0004FF4005001E04FF40030084908394860E1
:103EC00000BF002084F8200000BFA06A58B320463D
:103ED000A16A884727E00000080402400800024069
:103EE00094F84010082088402840E0B106F008000F
:103EF000C8B12068006820F00E002168086094F8BE
:103F0000401001208840E16B48600120A06384F8E4
:103F1000210000BF002084F8200000BF206B10B1FA
:103F20002046216B884770BD2DE9F04104460D46BF
:103F300016461F464FF0000800BF94F820000128E5
:103F400002D10220BDE8F081012084F8200000BFEA
:103F500094F8210001282CD1022084F821000020AF
:103F6000A0632068006820F00100216808603B46DB
:103F7000324629462046FFF7F3FDE06A30B120685B
:103F8000006840F00E00216808600BE020680068BF
:103F900020F00400216808602068006840F00A00F2
:103FA000216808602068006840F00100216808600E
:103FB00006E000BF002084F8200000BF4FF0020898
:103FC0004046BFE710B5002807DA0A07140E444A36
:103FD00000F00F031B1FD45403E00A07130E414ADD
:103FE000135410BD00BF00F007023D4B0C3B196895
:103FF0004FF6FF0319403C4B0B4343EA0221384B79
:104000000C3B196000BF70472DE9F05F80460D46FC
:104010001646002700F05DF8074639462A46334623
:1040200001F00700C0F1070ABAF1040F02D94FF0FE
:10403000040A01E0C0F1070AD14600F1040ABAF10E
:10404000070F02D24FF0000A01E0A0F1030AD446A4
:104050004FF0010A0AFA09FAAAF1010A0AEA020A69
:104060000AFA0CFA4FF0010B0BFA0CFBABF1010B47
:104070000BEA030B4AEA0B0421464046FFF7A2FF76
:10408000BDE8F09F00BF00F01F02012191404209EE
:10409000920002F1E022C2F8001100BF704770B533
:1040A00004462546681EB0F1807F01D301200FE051
:1040B000681E4FF0E02148610F214FF0FF30FFF7FD
:1040C00081FF00204FF0E021886107200861002077
:1040D00070BD03480C380068C0F302207047000030
:1040E00018ED00E000E400E00000FA051148006867
:1040F00040F001000F490860084640680E4908403A
:104100000C494860084600680C49084009490860A5
:104110000846006820F4802008600846406820F4C3
:10412000FE0048604FF41F008860C803044908601F
:1041300070470000001002400000FFF8FFFFF6FE8D
:1041400008ED00E070B504462E4A105D121F52F8CB
:104150002420516888470546284670BD70B504463E
:10416000002528480838005D58B90120254908393C
:104170000855244A105D0A1D52F82420116888470A
:104180000546284670BD2DE9F04104460D46164609
:104190001F461C49085D091F51F824103B46324652
:1041A000D1F808C02946E04780464046BDE8F08186
:1041B0002DE9F04104460D4616461F461149085D9B
:1041C000091F51F824103B463246D1F80CC029464D
:1041D000E04780464046BDE8F0812DE9F0410446C5
:1041E0000D4616460749085D091F51F8241032464E
:1041F0000B692946984707463846BDE8F0810020FC
:10420000704700005C36002070B503460C4603E0A2
:1042100014F8015B03F8015B151EA2F10102F7D14E
:1042200070BD30B5034601E003F8011B141EA2F176
:104230000102F9D130BDF0B503461C460D46002001
:1042400000BF161EA2F1010207D014F8017B15F879
:1042500001CBA7EB0C06301EF3D0F0BD024600E008
:10426000521C107810B110788842F9D1107870473C
:1042700030B502460B4600200446014627E001EB1C
:104280004100F84D55F82000F8B101EB410055F818
:1042900020504FF480508058854217D101EB4100E7
:1042A000F04D05EB8000456841F2080080588542DA
:1042B0000CD101EB4100EB4D05EB8000058941F28B
:1042C0000600805A854201D103E00124491C0229DD
:1042D000D5D300BF022906D10CB9022B01D1002091
:1042E00030BD1220FCE743B901EB4100DD4D05EB89
:1042F00080004089B0F5807F01D11020F0E70020D8
:10430000EEE7002100E0491C022906D201EB410042
:10431000D44A52F820000028F5D1022901D001200A
:1043200070470020FCE730B502460B46002121E033
:1043300001EB4100CB4C54F820404FF480508058A2
:10434000844216D101EB4100C64C04EB8000446866
:1043500041F20800805884420BD101EB4100C14C6E
:1043600004EB8000048941F20600805A844200D1A7
:1043700002E0491C0229DBD300BF02292DD1002114
:1043800000E0491C022906D201EB4100B54C54F86B
:1043900020000028F5D1022901D1002030BD4FF4C2
:1043A0008050805801EB4104AE4D45F8240041F2A5
:1043B0000800805801EB410405EB8404606041F281
:1043C0000600805A01EB410405EB840420810020A3
:1043D00001EB410405EB8404608143B101EB410032
:1043E000A04C04EB8000408908B10020D6E713B14F
:1043F0004FF4807006E001EB41009A4C04EB800022
:104400004089401C01EB4104964D05EB840460811A
:10441000481CC3E730B50246531E1A46022B1BD276
:1044200002EB42038F4C04EB83035989B1F5807F83
:1044300000D1002109B14B1E99B202EB4203894C15
:1044400004EB8303598129B9002302EB4204854D13
:1044500045F82430002000E0022030BD10B50146B0
:1044600000200DE000EB40027E4B53F822208A42F0
:1044700005D1002200EB40037A4C44F82320401C75
:104480000228EFD310BD2DE9F0410446002741F288
:104490000400005D68B341F22C00055941F20101AE
:1044A000085D01232A462146FFF782FE08B1012755
:1044B0001FE0002141F2040001554FF481500059E2
:1044C000291A41F218000059814212D241F2030028
:1044D000065D0CE041F218000059054441F201016B
:1044E000085D01232A462146FFF762FE761E022E52
:1044F000F0D23846BDE8F08170B504460D4600267E
:1045000041F22C000059A84213D02046FFF7BBFF10
:10451000064676B941F20101085D01232A4621468B
:10452000FFF731FE10B14FF0FF35012641F22C00AC
:104530000551304670BD70B504462046FFF7A3FF15
:104540000546002D7ED14FF48050005D032871D1C7
:1045500041F20500005D01286CD141F20A00025BC6
:1045600000212046FFF75DFE552084F8FE01AA21B8
:1045700040F2FF1001555220207060706120A07041
:104580004120E070722084F8E401722140F2E510CD
:1045900001554121401C01556121401C015541F24A
:1045A0001000005D84F8E80141F21000005BC0F3E8
:1045B000072140F2E910015541F210000059C0F303
:1045C00007414FF4F570015541F210000059010EFA
:1045D00040F2EB10015541F20C00005D84F8EC0153
:1045E00041F20C00005BC0F3072140F2ED100155D1
:1045F00041F20C000059C0F307414FF4F770015528
:1046000041F20C000059010E40F2EF10015541F249
:104610001C000059401C41F22C0108510A5941F27A
:104620000101085D01232146FFF7C2FD002141F28F
:104630000500015541F20101085D00221146FFF716
:10464000CCFD00E001E000B10125284670BD024626
:10465000891E41F214008058801E884204D8002030
:10466000704700003C34002041F22800835841F29A
:104670000200805C01FB0030F2E72DE9F05F0446A8
:104680000D46022D04D341F214000059A84202D86D
:104690004FF00109A0E04FF0FF394FF48050005D6A
:1046A000012804D0022844D003287AD163E02F46A1
:1046B00007EB570741F20A00005BB7FBF0F14FF43C
:1046C0008150005901EB000A51462046FFF714FFC4
:1046D00000B180E038467F1C41F20A01095BB0FB63
:1046E000F1F201FB120014F8008041F20A00005BB5
:1046F000B7FBF0F14FF48150005901EB000A51462D
:104700002046FFF7F9FE00B165E041F20A00005BC8
:10471000B7FBF0F100FB1170205C48EA002805F0BF
:10472000010010B14FEA181001E0C8F30B008146F8
:1047300051E041F20A0030F804A00AEBDA704010B0
:10474000B5FBF0F14FF48150005901EB000B5946D5
:104750002046FFF7D1FE00B13DE0690041F20A00BA
:10476000005BB1FBF0F200FB121006193078717893
:1047700040EA01292FE041F20A0030F804A04FEA94
:10478000EA700AEB90708010B5FBF0F14FF48150A5
:10479000005901EB000B59462046FFF7ADFE08B16A
:1047A00019E015E0A90041F20A00005BB1FBF0F24C
:1047B00000FB12100619F0780006B17840EA0140BB
:1047C000717840EA01203178084320F0704902E016
:1047D0004FF0010900BF00BF4846BDE8F09F2DE93A
:1047E000F05F04460E461746022E04D341F2140031
:1047F0000059B04202D84FF00208CCE04FF480508C
:10480000005D012804D002285DD0032872D183E026
:10481000B14609EB590941F20A00005BB9FBF0F11E
:104820004FF48150005901EB000A51462046FFF732
:1048300063FE8046B8F1000F00D0ABE0484609F1B6
:10484000010941F20A01095BB0FBF1F201FB120020
:10485000051906F0010020B1F9B2287861F31F10A4
:1048600000E038462870012141F204000155801D06
:10487000005BB9FBF0F14FF48150005901EB000AE5
:1048800051462046FFF738FE8046B8F1000F00D0B1
:1048900080E041F20A00005BB9FBF0F100FB1190EF
:1048A000051906F0010010B1C7F3071005E02878DC
:1048B00000F0F000C7F3032108432870012141F202
:1048C0000400015566E041F20A0030F804A00AEB4A
:1048D000DA704010B6FBF0F14FF48150005901EB53
:1048E000000B59462046FFF707FE8046B8F1000F3F
:1048F00001D04FE04BE0710041F20A00005BB1FBD8
:10490000F0F200FB121005192F70380A68700121AF
:1049100041F2040001553DE041F20A0030F804A0E4
:104920004FEAEA700AEB90708010B6FBF0F14FF49A
:104930008150005901EB000B59462046FFF7DCFD82
:104940008046B8F1000F00D024E0B10041F20A0027
:10495000005BB1FBF0F200FB12100519E8780006CD
:10496000A97840EA0140697840EA012029780843A3
:1049700000F0704007432F70380A6870380CA87038
:10498000380EE870012141F20400015502E04FF0B9
:10499000020800BF00BF4046BDE8F09F2DE9F0418E
:1049A00004460E46022E04D341F214000059B042D0
:1049B00001D8022733E000272BE031462046FFF7DD
:1049C0005CFE054605B929E0012D01D1022725E04D
:1049D000681C08B9012721E0002231462046FFF774
:1049E000FEFE074607B119E041F210000059401CD5
:1049F00070B141F210000059401C41F21001085101
:104A000041F20500005D40F0010141F20500015551
:104A10002E4641F214000059B042CED800BF3846AD
:104A2000BDE8F0812DE9F04704468946B9F1000F51
:104A30000AD141F20C00075927B141F21400005984
:104A4000B84217D8012715E049462046FFF715FE62
:104A50000646022E02D20120BDE8F087701C08B97C
:104A60003046F9E741F214000059B04201D930460E
:104A7000F2E74F463D4600BF6D1C41F2140000595D
:104A8000A84204D80225BD4201D90020E4E7294606
:104A90002046FFF7F2FD064606B909E0701C08B192
:104AA000012E01D13046D7E7BD42E5D10020D3E742
:104AB00000BF6FF0704229462046FFF790FE804607
:104AC000B8F1000F08D1B9F1000F05D02A464946C8
:104AD0002046FFF784FE8046B8F1000F16D141F260
:104AE0000C000551001D0059401CB8B141F21000E6
:104AF0000059401E41F21001085141F20500005DCD
:104B000040F0010141F20500015507E0B8F1010F45
:104B100002D14FF0FF3000E00120054628469BE718
:104B200070B502460D4641F224008058031D4FF433
:104B30008050805800F580504089B5FBF0F64FF466
:104B40008050805800F580508078B6FBF0F400BFAC
:104B500002CB09B9002070BD8C4200D202E0641A79
:104B60001B1DF5E700BF18682044F4E72DE9F0416C
:104B700004460E4641F206000653801C0559012DDD
:104B800007D04FF48050005900F580504069A8428A
:104B900002D80220BDE8F0816DB94FF48050005971
:104BA00000F580500078032805D14FF4805000595B
:104BB00000F58050456A85B94FF48050005900F5E2
:104BC00080500089B04201D80220E3E74FF48050C2
:104BD000005900F58050476A34E04FF4805109597C
:104BE00001F580514889C11700EBD16149114FF49B
:104BF0008052125902F58052927801FB02F818E0B7
:104C00004FF4805108592946FFF737FD0546681CC7
:104C100008B90120BEE7022D07D34FF48050005998
:104C200000F580504069A84201D80220B2E7A6EB07
:104C300008064645E4D24FF4805108592946FFF74B
:104C400006FD074641F20C0005510FB90220A1E70D
:104C50004FF48051095901F580514889C11700EB83
:104C6000D1614911B6FBF1F1CA1941F210010A51A3
:104C70004FF48051095901F580514889C11700EB63
:104C8000D1614911B6FBF1F201FB12614FF4805280
:104C9000125902EB411241F214010A51002079E746
:104CA0002DE9F0410446884641F20600005B461CAF
:104CB000B0B218B141F21000005910B90420BDE89B
:104CC000F0814FF48051095901F580514889C1178D
:104CD00000EBD1614911B6FBF1F201FB1261002931
:104CE0007DD141F210000059401C41F210010851E1
:104CF000081F005948B94FF48050005900F5805002
:104D00000089B0426BD80420D9E74FF4805109598B
:104D100001F580514889C11700EBD1614911B6FBFB
:104D2000F1F14FF48052125902F580529278521EDE
:104D300011400029D4D141F20C0211594FF4805294
:104D40001059FFF79AFC0546012D01D80220B6E75D
:104D5000681C08B90120B2E74FF48050005900F5F3
:104D600080504069A8426BD8B8F1000F01D10420EF
:104D7000A5E741F20C0211594FF480521059FFF788
:104D800051FE05460DB9072099E7012D01D10220FA
:104D900095E7681C08B9012091E74FF48051085944
:104DA000FFF771FB08B1012089E74FF480510959E1
:104DB00001F580514A894FF4805108590021FFF7CD
:104DC00030FA4FF4805108592946FFF740FC4FF460
:104DD0008051095901F58051C86200271BE03BE072
:104DE00001210803005900F5805001710903085999
:104DF000FFF749FB08B1012061E74FF480500059EB
:104E000000F58050C06A401C4FF48051095901F5EB
:104E10008051C8627F1C4FF48050005900F58050CB
:104E20008078B842DCD84FF48050005900F58050AB
:104E3000C06AC11B4FF48050005900F58050C16218
:104E400041F20C0005514FF4805108592946FFF7F3
:104E5000FEFB41F21001085141F206000653811F8A
:104E6000095901F580514889C11700EBD1614911F9
:104E7000B6FBF1F201FB12614FF48052125902EBC2
:104E8000411241F214010A51002018E72DE9F041C6
:104E900004460E4600212046FFF768FE05462DBB5E
:104EA000002700BF41F2100211594FF480521059EF
:104EB000FFF722FB054605B117E041F21400005947
:104EC0000078E52804D041F214000059007820B998
:104ED000781C0746B04201D107E000270121204697
:104EE000FFF7DEFE0546002DDCD000BF042D00D10B
:104EF00007252846BDE8F08110B502468C7ECB7EA2
:104F000044EA03204FF480539B5C032B05D10C7DB6
:104F10004B7D44EA032340EA034010BD81760B0A2F
:104F2000C3760A0C02750B0E437570472DE9F047E6
:104F300005460C46207820F04000401E00EB800122
:104F400001EBC00600274FF0010800BFF748C05D25
:104F5000205CF649C95D2144497840EA0129B8F14D
:104F6000000F10D0484602F046F88046FF2E07D2C8
:104F70003146761C35F8110002F03DF8404508D066
:104F80000020BDE8F0874FF6FF70814501D000207A
:104F9000F7E7781C07460D28D8D3207800F04000AA
:104FA00038B1B8F1000F04D035F8160008B1002070
:104FB000E7E70120E5E7F0B50346087800F03F0099
:104FC000401E00EB800707EBC0020025012600BF52
:104FD000D648405D085CD54F7F5D0F447F7840EA3E
:104FE00007244EB1FF2A01D30020F0BD264610460B
:104FF000521C23F8104005E04FF6FF70844201D0A8
:105000000020F2E7681C05460D28E1D3087800F07F
:10501000400030B1FF2A01D30020E6E7002023F84A
:1050200012000120E1E7F0B504461D464D730F273D
:10503000CF7200270F738F76BC4681F81BC0571EB6
:1050400007EB870C0CEBC706002738463B4600BF32
:105050004FF6FF77B84203D03746761C34F8170076
:10506000DFF8C8C21CF803C001F80C000712DFF813
:10507000BCC21CF803C08C448CF8017008B94FF610
:10508000FF705F1C3B460D2FE2D34FF6FF77B8420F
:1050900002D034F816700FB942F040020A70F0BD29
:1050A0002DE9FF4F83B0814690461D460B224846AE
:1050B0000499FFF7A9F8052D18D92F4611E038F803
:1050C00002BB00240BE0584667F35F0007464FEA37
:1050D0006B0B07F4803008B195484740641C102CD6
:1050E000F1D3B8F800000028E9D13D46072400BFFD
:1050F00005F00F0000F1300ABAF1390F03DD0AF1B3
:10510000070000F0FF0A2046641E01A901F800A074
:105110002D09002DECD17E200855002600E0761CDC
:10512000A64203D219F806002028F8D100BF082CA7
:1051300004D22046641C01A9085C00E0202031460E
:10514000761C09F80100082EF1D307B0BDE8F08FF6
:1051500030B5014600200B2200BF431003EBC01402
:1051600011F8015B6319D8B2531E1A1EF5D130BD78
:105170002DE9F047044600212046FFF7F7FC0746DB
:1051800017B13846BDE8F0874FF0FF09CA464FF621
:10519000FF7141F22400015300BF41F21002115986
:1051A0004FF480521059FFF7A7F9074607B168E09E
:1051B00041F2140005592E780EB9042761E0E87A0F
:1051C00000F03F08E52E05D008F0080050B1B8F116
:1051D0000F0F07D04FF0FF094FF6FF7141F2240087
:1051E000015347E0B8F10F0F24D14FF4815000591B
:1051F000F8B106F0400050B195F80DA026F0400639
:10520000B14641F20600015B41F2240001534E45D4
:105210000CD1687B504509D14FF48151085929467A
:10522000FFF784FE10B1A9F1010000E0FF2000F0BB
:10523000FF091FE0B9F1000F05D12846FFF788FFED
:10524000504500D11DE041F218000059C07A00F02D
:10525000010040B941F2180001590B222846FEF71F
:10526000EAFF00B90DE04FF0FF094FF6FF7141F280
:105270002400015300212046FFF712FD0746002FAE
:105280008BD000BF38467DE72DE9F05F04468A46A3
:105290004FF0FF09CB46042761E041F2100211599B
:1052A0004FF480521059FFF727F9074607B15BE02A
:1052B00041F21400065935780DB9042754E0F07A0C
:1052C00000F03F08E52D0AD02E2D08D028F0200050
:1052D000082801D1012000E00020504502D04FF005
:1052E000FF0935E0B8F10F0F24D105F0400050B1AF
:1052F00096F80DB025F04005A94641F20600015B85
:1053000041F2240001534D450CD1707B584509D121
:105310004FF4815108593146FFF74DFE10B1A9F104
:10532000010000E0FF2000F0FF0911E08C7400088C
:1053300021100100B9F1000F04D13046FFF708FF3A
:10534000584504D04FF6FF7141F2240001530BE0A1
:1053500000212046FFF7A4FC074607B104E041F214
:1053600010000059002898D100BF1FB1002141F260
:10537000100001513846BDE8F09F2DE9FE4F04466C
:1053800041F2180050F804804FF4815050F8049016
:105390000C2241466846FEF737FF00BF9DF80B0020
:1053A00000F0010048B3002088F80B0000214FF402
:1053B0008150015101260CE033464A466946404679
:1053C000FFF76EFE2046FFF7D3FE054605B102E06B
:1053D000761C642EF0D300BF642E02D10720BDE8F6
:1053E000FE8F042D01D02846F9E79DF80B0088F8C0
:1053F0000B004FF4815040F804909DF80B0000F032
:10540000020060B1002600E0761C39F81600002882
:10541000FAD106F119000D21B0FBF1F700E00127E8
:1054200039462046FFF732FD0546BDBB781E071EF4
:1054300034D041F20600005BC11B2046FFF796FB0B
:1054400005465DBB41F218010859FFF781FE82460F
:1054500000BF41F2100211594FF480521059FFF76A
:105460004BF8054605B118E0FAB241F21403195998
:105470004FF4815318595346FFF7D5FD0121080316
:10548000005900F58050017100212046FFF708FC0B
:10549000054615B9781E071EDBD100BF45BB41F29A
:1054A000100211594FF480521059FFF725F80546A4
:1054B000F5B941F21401085920220021FEF7B1FE8E
:1054C00041F218021159121F10590B22FEF79CFECF
:1054D00041F218000059C07A00F0180141F214009E
:1054E0000059017301210803005900F58050017132
:1054F000284674E770B5044641F20600065B41F2A7
:105500002400005B4FF6FF72904201D1304602E06A
:1055100041F22400005B01462046FFF727FB0546C9
:1055200075BB00BF41F2100211594FF4805210595F
:10553000FEF7E2FF054605B11EE041F214010859ED
:1055400020220021FEF76DFEE52141F214000059F2
:10555000017001210803005900F58050017141F2EA
:105560000600005BB04200D306E000212046FFF7B2
:1055700097FB0546002DD5D000BF042D00D1022594
:10558000284670BD2DE9F05F80460D4605F10907FC
:1055900041F2100050F80800002845D041F21400F4
:1055A00050F80840002626E03046761C14F800909B
:1055B000B9F1200F00D11EE0B9F1050F01D14FF074
:1055C000E509092E02D12E2007F8010BB9F1410F90
:1055D0000EDBB9F15A0F0BDC207B092E01D3102111
:1055E00000E00821084018B109F1200000F0FF098F
:1055F00007F8019B00BF0B2ED6D3E07A2872E07F1C
:105600000106A07F41EA0041607F41EA0020217F3E
:1056100008432860217E607E41EA0020A880A17DA9
:10562000E07D41EA0020E88000203870A86990B34E
:105630000026AF6941F2100050F8080048B3E8694D
:1056400038B341F2240030F808004FF6FF71884269
:105650001FD04FF4815050F808B014E0002150469C
:1056600001F0A6FC8246BAF1000F01D100260FE03E
:1056700000BFE869401EB04201D8002608E030466D
:10568000761C07F800A03BF8021BB1F1000AE5D137
:1056900000BF0020B855BDE8F09F2DE9F34F83B05F
:1056A00082460498D0F800B001E00BF1010B9BF8A2
:1056B00000002F28F9D09BF800005C28F5D04FF4AB
:1056C000815050F80A9000252E4600BF3046761CC7
:1056D0001BF80040202C03DB2F2C01D05C2C00D1C8
:1056E0001CE0FF2D03D3062005B0BDE8F08FE4B227
:1056F0000121204601F05CFC04460CB90620F3E7CA
:10570000802C06DA2146FEA0FEF7A8FD08B106208F
:10571000EAE728466D1C29F81040D7E700BF0BEBDD
:10572000060104980160202C01DA042000E000202A
:10573000074608E0681E39F81040202C02D02E2CB5
:1057400000D002E06D1E002DF4D100BF0DB906207F
:10575000CAE7002029F8150041F2180151F80A00A3
:105760000B222021FEF75DFD002600E0761C39F8B3
:1057700016002028FAD039F816002E28F6D00EB1DF
:1057800047F0030700E06D1E25B1681E39F81000D0
:105790002E28F8D14FF00008CDF80880082001909D
:1057A00000BF3046761C39F8104004B957E0202C71
:1057B00003D02E2C04D1AE4202D047F00307F0E70D
:1057C000DDE90110884201D2AE4216D101980B28C2
:1057D00002D147F0030742E0AE4201D047F0030791
:1057E000AE4200D93BE02E46082002900B200190EB
:1057F0004FEA88604FEA1068D3E7802C0BDB00216A
:10580000204601F0D5FB04461CB1A4F18000BF493D
:105810000C5C47F0020700BF24B12146BCA0FEF794
:105820001DFD18B15F2447F003070FE0412C04DB96
:105830005A2C02DC48F0020808E0612C06DB7A2CC6
:1058400004DC48F00108A4F1200084B241F2180001
:1058500050F80A300298411C02911C54A1E700BF85
:1058600041F2180050F80A000078E52805D105211A
:1058700041F2180050F80A0001700198082803D17D
:105880004FEA88604FEA106808F00C000C2803D03B
:1058900008F00300032801D147F0020707F00200D7
:1058A00058B908F00300012801D147F0100708F0AB
:1058B0000C00042801D147F0080741F2180050F805
:1058C0000A00C77200200FE72DE9F3410446019852
:1058D00000782F2803D0019800785C2802D1019825
:1058E000401C0190002141F208000151019800780C
:1058F000202808D22046FFF739F90546002141F259
:105900001400015130E000BF01A92046FFF7C5FE99
:10591000054605B127E02046FFF72AFC054641F27F
:1059200018000059C77A3DB1042D04D100BF07F01B
:10593000040000B9052516E007F0040000B112E0EC
:1059400041F214000659F07A00F0100008B905255C
:1059500009E04FF4805108593146FFF7CDFA41F282
:1059600008010851D0E700BF2846BDE8FC8170B5AA
:1059700002464FF0FF301568DDB1116800E0491CA8
:105980000D78202D02D30D783A2DF8D10D783A2DCF
:105990000ED1146814F8015BA5F130030A2B06D26E
:1059A0008C4204D11BB918464D1C2946156070BDA8
:1059B000002000BFFBE770B504460D46002141F210
:1059C00004000155491E41F22C0001512946204690
:1059D000FEF792FD08B1032070BD94F8FE1140F26D
:1059E000FF10005D41EA00204AF65521884201D0AF
:1059F0000220F1E73920005D01063820005D41EA10
:105A000000413720005D41EA002094F83610084339
:105A100020F07F404049884201D10020DCE755203A
:105A2000005D01065420005D41EA00415320005D05
:105A300041EA002094F85210084320F07F40364994
:105A4000884201D10020C7E70120C5E72DE9F74FC3
:105A50008AB000210A9801600B98FFF788FF09902F
:105A60000998002803DA0B200DB0BDE8F08F2B4910
:105A7000099851F820400CB90C20F5E70A98046009
:105A80004FF48050005D88B141F20101085DFEF7DE
:105A900059FB814609F0010040B90C9820B109F08A
:105AA000040008B10A20DFE70020DDE700214FF401
:105AB000805001550998C1B241F2010001550146DB
:105AC000085DFEF74BFB814609F0010008B1032099
:105AD000CAE70C9820B109F0040008B10A20C3E716
